:020000040000FA
:06000000C6EF02F0120041
:020006000000F8
:08000800D9CFE6FFE1CFD9FFDB
:10001000040EE126DE6ADE6ADE6ADD6ADD52DD524A
:10002000D9CFE9FFDACFEAFF840EEE5C030EEE587B
:10003000000EEE58000EEE580AE2D9CFE9FFDACFF3
:10004000EAFFEE2A000EEE22EE22EE22E9D7040E9F
:10005000E15C02E2E16AE552E16EE552E7CFD9FFE9
:100060001200D9CFE6FFE1CFD9FF020EE126DE6A0A
:10007000DD6ADECF02F0DDCF03F05A0E025C000E27
:10008000035805E2DF2A010E01E3DB2AF2D7020E54
:10009000E15C02E2E16AE552E16EE552E7CFD9FFA9
:1000A0001200D9CFE6FFE1CFD9FF8B908B82FE0EF5
:1000B000DB380F0B010BE8B08B88E8A08B98FE0EA5
:1000C000DB50E00BE838E840010BE8B08B8AE8A091
:1000D0008B9A060E026EFE0EDB5002C0E7FFE7525F
:1000E00004E0E8427F0BE706FCE1010BE8B08B8CF3
:1000F000E8A08B9CFE0EDB44010B010BE8B08B8E5D
:10010000E8A08B9E8B9280DF8B82FE0EDB50010B72
:10011000E8B08B88E8A08B98FE0EDB407F0B010BCC
:10012000E8B08B8AE8A08B9AFE0EDB40E8403F0BDC
:10013000010BE8B08B8CE8A08B9CFE0EDB40E84006
:10014000E8401F0B010BE8B08B8EE8A08B9E8B92D2
:1001500088DFE552E7CFD9FF1200020EE66EA1DF7D
:10016000E552280EE66E9DDFE5520C0EE66E99DF35
:10017000E552060EE66E95DFE552010EE66E91DF62
:10018000E5521200D9CFE6FFE1CFD9FFE652FE0ECD
:10019000DB0406E1FD0EDB50800FFF0FDF6E09D0A0
:1001A000FE0EDB50020805E1FD0EDB50C00FFF0F15
:1001B000DF6EDFCFE6FF75DFE552E552E552E7CFB0
:1001C000D9FF1200D9CFE6FFE1CFD9FF8B808B8218
:1001D000FE0EDB380F0B010BE8B08B88E8A08B9884
:1001E000FE0EDB50E00BE838E840010BE8B08B8AEC
:1001F000E8A08B9A060E026EFE0EDB5002C0E7FFEF
:10020000E75204E0E8427F0BE706FCE1010BE8B0AF
:100210008B8CE8A08B9CFE0EDB44010B010BE8B03D
:100220008B8EE8A08B9E8B921CDF8B82FE0EDB50A8
:10023000010BE8B08B88E8A08B98FE0EDB407F0BAB
:10024000010BE8B08B8AE8A08B9AFE0EDB40E840F9
:100250003F0B010BE8B08B8CE8A08B9CFE0EDB40C3
:10026000E840E8401F0B010BE8B08B8EE8A08B9EA6
:100270008B92F7DEE552E7CFD9FF1200D9CFE6FF28
:10028000E1CFD9FF8A908A82FE0EDB380F0B010B7B
:10029000E8B08A88E8A08A98FE0EDB50E00BE838C8
:1002A000E840010BE8B08A8AE8A08A9A060E026E3E
:1002B000FE0EDB5002C0E7FFE75204E0E8427F0B8E
:1002C000E706FCE1010BE8B08A8CE8A08A9CFE0EF0
:1002D000DB44010B010BE8B08A8EE8A08A9E8A926B
:1002E00093DE8A82FE0EDB50010BE8B08A88E8A01C
:1002F0008A98FE0EDB407F0B010BE8B08A8AE8A0EB
:100300008A9AFE0EDB40E8403F0B010BE8B08A8C76
:10031000E8A08A9CFE0EDB40E840E8401F0B010B82
:10032000E8B08A8EE8A08A9E8A929BDEE552E7CFEB
:10033000D9FF1200020EE66EA1DFE552280EE66E2E
:100340009DDFE5520C0EE66E99DFE552060EE66E75
:1003500095DFE552010EE66E91DFE5521200D9CF2E
:10036000E6FFE1CFD9FFE652FE0EDB0406E1FD0E0B
:10037000DB50800FFF0FDF6E09D0FE0EDB5002084E
:1003800005E1FD0EDB50C00FFF0FDF6EDFCFE6FF94
:1003900075DFE552E552E552E7CFD9FF1200D9CF1C
:1003A000E6FFE1CFD9FF8A808A82FE0EDB380F0B91
:1003B000010BE8B08A88E8A08A98FE0EDB50E00BBB
:1003C000E838E840010BE8B08A8AE8A08A9A060E6D
:1003D000026EFE0EDB5002C0E7FFE75204E0E84287
:1003E0007F0BE706FCE1010BE8B08A8CE8A08A9C51
:1003F000FE0EDB44010B010BE8B08A8EE8A08A9E5A
:100400008A922FDE8A82FE0EDB50010BE8B08A88CA
:10041000E8A08A98FE0EDB407F0B010BE8B08A8AC9
:10042000E8A08A9AFE0EDB40E8403F0B010BE8B0E3
:100430008A8CE8A08A9CFE0EDB40E840E8401F0B57
:10044000010BE8B08A8EE8A08A9E8A920ADEE55205
:10045000E7CFD9FF1200946A936A7FDE6BDF010E4B
:10046000E66EE66E8FDEE552E5524E0EE66EAADED1
:10047000E552690EE66EA6DEE552670EE66EA2DE76
:10048000E552740EE66E9EDEE552680EE66E9ADE6A
:10049000E552E7DD010EE66EE66E61DFE552E552FC
:1004A0004E0EE66E7CDFE5526F0EE66E78DFE552AB
:1004B000690EE66E74DFE552740EE66E70DFE5528B
:0E04C000650EE66E6CDFE552CCDDC9D712008A
:0204CE00060E18
:1004D000F66E000EF76E000EF86E00010900F55082
:1004E000856F0900F550866F03E1856701D03DD027
:1004F0000900F550806F0900F550816F0900F55033
:10050000826F09000900F550E96E0900F550EA6EA6
:10051000090009000900F550836F0900F550846F48
:1005200009000900F6CF87F0F7CF88F0F8CF89F0FF
:1005300080C0F6FF81C0F7FF82C0F8FF000183533F
:1005400002E1845307E00900F550EE6E8307F8E2FC
:100550008407F9D787C0F6FF88C0F7FF89C0F8FF86
:0C05600000018507000E865BBFD712006B
:04056C00000EF36E1C
:1005700000EE00F0060E01D81200EA6002D0EE6A2A
:0C058000FCD7F350E9601200EE6AFCD7D3
:04058C0015EE00F078
:1005900025EE00F0F86A019C67EC02F0D4EC02F062
:0805A0002BEC02F0FBD7120066
:0205A80012003F
:00000001FF
