:020000040000FA
:06000000F6EF01F0120012
:020006000000F8
:08000800D9CFE6FFE1CFD9FFDB
:10001000040EE126DE6ADE6ADE6ADD6ADD52DD524A
:10002000D9CFE9FFDACFEAFF840EEE5C030EEE587B
:10003000000EEE58000EEE580AE2D9CFE9FFDACFF3
:10004000EAFFEE2A000EEE22EE22EE22E9D7040E9F
:10005000E15C02E2E16AE552E16EE552E7CFD9FFE9
:100060001200D9CFE6FFE1CFD9FF020EE126DE6A0A
:10007000DD6ADECF02F0DDCF03F05A0E025C000E27
:10008000035805E2DF2A010E01E3DB2AF2D7020E54
:10009000E15C02E2E16AE552E16EE552E7CFD9FFA9
:1000A0001200D9CFE6FFE1CFD9FF8B908B82FE0EF5
:1000B000DB380F0B010BE8B08B88E8A08B98FE0EA5
:1000C000DB50E00BE838E840010BE8B08B8AE8A091
:1000D0008B9A060E026EFE0EDB5002C0E7FFE7525F
:1000E00004E0E8427F0BE706FCE1010BE8B08B8CF3
:1000F000E8A08B9CFE0EDB44010B010BE8B08B8E5D
:10010000E8A08B9E8B9280DF8B82FE0EDB50010B72
:10011000E8B08B88E8A08B98FE0EDB407F0B010BCC
:10012000E8B08B8AE8A08B9AFE0EDB40E8403F0BDC
:10013000010BE8B08B8CE8A08B9CFE0EDB40E84006
:10014000E8401F0B010BE8B08B8EE8A08B9E8B92D2
:1001500088DFE552E7CFD9FF1200020EE66EA1DF7D
:10016000E552280EE66E9DDFE5520C0EE66E99DF35
:10017000E552060EE66E95DFE552010EE66E91DF62
:10018000E5521200D9CFE6FFE1CFD9FFE652FE0ECD
:10019000DB0406E1FD0EDB50800FFF0FDF6E09D0A0
:1001A000FE0EDB50020805E1FD0EDB50C00FFF0F15
:1001B000DF6EDFCFE6FF75DFE552E552E552E7CFB0
:1001C000D9FF1200D9CFE6FFE1CFD9FF8B808B8218
:1001D000FE0EDB380F0B010BE8B08B88E8A08B9884
:1001E000FE0EDB50E00BE838E840010BE8B08B8AEC
:1001F000E8A08B9A060E026EFE0EDB5002C0E7FFEF
:10020000E75204E0E8427F0BE706FCE1010BE8B0AF
:100210008B8CE8A08B9CFE0EDB44010B010BE8B03D
:100220008B8EE8A08B9E8B921CDF8B82FE0EDB50A8
:10023000010BE8B08B88E8A08B98FE0EDB407F0BAB
:10024000010BE8B08B8AE8A08B9AFE0EDB40E840F9
:100250003F0B010BE8B08B8CE8A08B9CFE0EDB40C3
:10026000E840E8401F0B010BE8B08B8EE8A08B9EA6
:100270008B92F7DEE552E7CFD9FF1200D9CFE6FF28
:10028000E1CFD9FFFD0EDBCFE9FFFE0EDBCFEAFFAA
:10029000EF500EE0FD0EDBCFE9FFDB2AFE0EDBCFD9
:1002A000EAFF01E3DB2AEF50E66E8CDFE552EAD786
:1002B000E552E7CFD9FF1200180EE66EF2DEE552E6
:1002C00012001C0EE66EEDDEE5521200010EE66E27
:1002D000E8DEE5521200D9CFE6FFE1CFD9FFE652C2
:1002E000946A3BDF010EE66EE66E4CDFE552E552A6
:1002F000430EE66E67DFE552610EE66E63DFE552A0
:10030000720EE66E5FDFE5526C0EE66E5BDFE55265
:100310006F0EE66E57DFE552730EE66E53DFE55261
:0E032000A0DEE0D7E552E552E7CFD9FF12008C
:02032E00060EB9
:10033000F66E000EF76E000EF86E00010900F55023
:10034000856F0900F550866F03E1856701D03DD0C8
:100350000900F550806F0900F550816F0900F550D4
:10036000826F09000900F550E96E0900F550EA6E48
:10037000090009000900F550836F0900F550846FEA
:1003800009000900F6CF87F0F7CF88F0F8CF89F0A1
:1003900080C0F6FF81C0F7FF82C0F8FF00018353E1
:1003A00002E1845307E00900F550EE6E8307F8E29E
:1003B0008407F9D787C0F6FF88C0F7FF89C0F8FF28
:0C03C00000018507000E865BBFD712000D
:0403CC00000EF36EBE
:1003D00000EE00F0060E01D81200EA6002D0EE6ACC
:0C03E000FCD7F350E9601200EE6AFCD775
:0403EC0015EE00F01A
:1003F00025EE00F0F86A019C97EC01F004EC02F0A5
:080400006BEC01F0FBD71200C8
:020408001200E0
:00000001FF
