:020000040000FA
:0600000005EF01F0120003
:020006000000F8
:08000800D9CFE6FFE1CFD9FFDB
:10001000030EE126DE6ADD6ADECF02F0DDCF03F0FB
:10002000D890035004E6520E025C000E035807E21B
:10003000020EDB6ADF2A010E01E3DB2AEDD7030E95
:10004000E15C02E2E16AE552E16EE552E7CFD9FFF9
:100050001200D9CFE6FFE1CFD9FF030EE126DE6A19
:10006000DD6ADECF02F0DDCF03F0D890035004E666
:10007000280E025C000E035807E2020EDB6ADF2A3C
:10008000010E01E3DB2AEDD7030EE15C02E2E16A37
:10009000E552E16EE552E7CFD9FF1200D9CFE6FF76
:1000A000E1CFD9FF020EE126DE6ADD6A8280ACDF95
:1000B00082B2FED7CEDF8290A7DF8250020B02E031
:1000C000828001D08290A0DF8250020B02E0828009
:1000D00001D0829099DF8250020B02E0828001D031
:1000E000829092DF8250020B02E0828001D08290E7
:1000F0008BDF8250020B02E0828001D0829084DF8D
:100100008250020B02E0828001D082907DDF82501B
:10011000020B02E0828001D0829076DF8250020BD7
:1001200002E0828001D082906FDF82806DDF020E5C
:10013000E15C02E2E16AE552E16EE552E7CFD9FF08
:0C014000120094909482AADFFED71200F7
:04014C00060EF66E37
:10015000000EF76E000EF86E00010900F550856F75
:100160000900F550866F03E1856701D03DD0090095
:10017000F550806F0900F550816F0900F550826FCE
:1001800009000900F550E96E0900F550EA6E090012
:1001900009000900F550836F0900F550846F0900CC
:1001A0000900F6CF87F0F7CF88F0F8CF89F080C04C
:1001B000F6FF81C0F7FF82C0F8FF0001835302E120
:1001C000845307E00900F550EE6E8307F8E28407D8
:1001D000F9D787C0F6FF88C0F7FF89C0F8FF000194
:0A01E0008507000E865BBFD71200F2
:0601EA00000EF36E00EEB2
:1001F00000F0060E01D81200EA6002D0EE6AFCD7C9
:0A020000F350E9601200EE6AFCD72B
:06020A0015EE00F025EEE8
:1002100000F0F86A019CA6EC00F013EC01F0A1ECF0
:0602200000F0FBD7120004
:020226001200C4
:00000001FF
