:020000040000FA
:060000004DEF08F01200B4
:020006001200E6
:0600080086EF05F0120076
:02000E000100EF
:0C001000B610000080000000320000006C
:04001C00D9CFE6FF53
:10002000E1CFD9FF040EE126DE6ADE6ADE6ADD6A10
:10003000DD52DD52D9CFE9FFDACFEAFF5A0EEE5C8E
:10004000000EEE58000EEE58000EEE580AE2D9CF20
:10005000E9FFDACFEAFFEE2A000EEE22EE22EE22D0
:10006000E9D7040EE15C02E2E16AE552E16EE55295
:10007000E7CFD9FF1200D9CFE6FFE1CFD9FF020EBB
:10008000E126DE6ADD6ADECF00F0DDCF01F0840E0E
:10009000005C030E015805E2DF2A010E01E3DB2AB2
:1000A000F2D7020EE15C02E2E16AE552E16EE5524E
:1000B000E7CFD9FF1200D9CFE6FFE1CFD9FF8B9070
:1000C0008B928B948B84FE0EDB508C6E8B94D3DFE3
:1000D000E552E7CFD9FF1200D9CFE6FFE1CFD9FF34
:1000E0008B808B928B94FE0EDB508C6E8B848B946A
:1000F000C2DFE552E7CFD9FF120090DF380EE66E7F
:10010000DADFE5520E0EE66ED6DFE552120084C04D
:1001100000F085C001F03C0E0102F3CF01F00002B7
:10012000F3CF00F0F450012600C028F001C029F000
:1001300080C02DF081C02EF0D1EC06F028C0A0F0D8
:1001400029C0A1F00001A26BA36BA1AF02D0A269EC
:10015000A369846B856B806B816B1200D9CFE6FF3E
:10016000E1CFD9FF040EE126080E046EAC0E056E39
:100170000C0E066E400E076E84C028F085C029F074
:10018000FEEC05F027C008F028C009F029C00AF0ED
:100190002AC00BF008C02CF009C02DF00AC02EF0C8
:1001A0000BC02FF004C027F005C028F006C029F0CE
:1001B00007C02AF064EC06F027C000F028C001F068
:1001C00029C002F02AC003F080C028F081C029F0C5
:1001D000FEEC05F027C00CF028C00DF029C00EF091
:1001E0002AC00FF00CC02CF00DC02DF00EC02EF068
:1001F0000FC02FF000C027F001C028F002C029F086
:1002000003C02AF011EC06F027C0DEFF28C0DEFF95
:1002100029C0DEFF2AC0DDFFDD52DD52D9CFE9FF64
:10022000DACFEAFFEECF00F0EECF01F0EECF02F032
:10023000EFCF03F0660E2C6E2D6E2E6E400E2F6EDD
:1002400000C027F001C028F002C029F003C02AF046
:1002500064EC06F0F7EC06F026C0A4F027C0A5F089
:1002600028C0A6F029C0A7F0040EE15C02E2E16A12
:10027000E552E16EE552E7CFD9FF1200870EE66E38
:100280001ADFE5524D0EE66E27DFE552860EE66E6A
:1002900012DFE5524B0EE66E1FDFE552850EE66E6D
:1002A0000ADFE552A80E00018625E96E000E8721BF
:1002B000EA6EEF50E66E10DFE552840EE66EFBDE6E
:1002C000E552A80E00018825E96E000E8921EA6E2C
:1002D000EF50E66E01DFE552830EE66EECDEE5528E
:1002E000A80E00018A25E96E000E8B21EA6EEF5000
:1002F000E66EF2DEE552820EE66EDDDEE552A80E17
:1003000000018C25E96E000E8D21EA6EEF50E66E3D
:10031000E3DEE552810EE66ECEDEE552A80E000168
:100320008E25E96E000E8F21EA6EEF50E66ED4DE68
:10033000E552800EE66EBFDEE552A80E0001902564
:10034000E96E000E9121EA6EEF50E66EC5DEE552D1
:10035000C00EE66EB0DEE552A80E00019825E96EEB
:10036000000E9921EA6EEF50E66EB6DEE552A80E59
:1003700000019625E96E000E9721EA6EEF50E66EB9
:10038000ABDEE552A80E00019425E96E000E952122
:10039000EA6EEF50E66EA0DEE552A80E000192254F
:1003A000E96E000E9321EA6EEF50E66E95DEE5529F
:1003B000520EE66E91DEE552500EE66E8DDEE5528F
:1003C0004D0EE66E89DEE5522D0EE66E85DEE552B7
:1003D000A80E00019E25E96E000E9F21EA6EEF50E7
:1003E000E66E7ADEE552A80E00019C25E96E000E4D
:1003F0009D21EA6EEF50E66E6FDEE552A80E000119
:100400009A25E96E000E9B21EA6EEF50E66E64DEDF
:10041000E5524B0EE66E60DEE5524D0EE66E5CDE9A
:10042000E5522F0EE66E58DEE552480EE66E54DEBB
:10043000E5521200D9CFE6FFE1CFD9FF040EE12645
:1004400082C000F083C001F0026A036A01AE02D0EC
:100450000268036800C0DFFF010E01C0DBFF020E6F
:1004600002C0DBFF030E03C0DBFFD9CFE9FFDACF09
:10047000EAFFEECF26F0EECF27F0EECF28F0EFCF59
:1004800029F0A00E2B6E860E2C6E010E2D6E2E6A9C
:1004900003EC08F026C090F027C091F090C004F063
:1004A00091C005F00A0E0502F3CF05F00402F3CF68
:1004B00004F0F4500526066A076A05AE02D0066805
:1004C0000768D9CFE9FFDACFEAFFEECF26F0EECF0B
:1004D00027F0EECF28F0EFCF29F0100E2B6E270E6D
:1004E0002C6E2D6A2E6A03EC08F000010450265C85
:1004F000006E05502758016E06502858026E0750AE
:100500002958036E00C08EF001C08FF08EC008F035
:100510008FC009F00A0E0902F3CF09F00802F3CFE9
:1005200008F0F45009260A6A0B6A09AE02D00A687C
:100530000B68D9CFE9FFDACFEAFFEECF26F0EECF96
:1005400027F0EECF28F0EFCF29F0E80E2B6E030E48
:100550002C6E2D6A2E6A03EC08F000010850265C10
:10056000046E09502758056E0A502858066E0B5025
:100570002958076E90C00CF091C00DF0640E0D026A
:10058000F3CF0DF00C02F3CF0CF0F4500D260E6AF1
:100590000F6A0DAE02D00E680F680C50045C006E3E
:1005A0000D500558016E0E500658026E0F50075838
:1005B000036E00C08CF001C08DF08CC00CF08DC0BB
:1005C0000DF00A0E0D02F3CF0DF00C02F3CF0CF07C
:1005D000F4500D260E6A0F6A0DAE02D00E680F6839
:1005E000D9CFE9FFDACFEAFFEECF26F0EECF27F042
:1005F000EECF28F0EFCF29F0640E2B6E2C6A2D6A17
:100600002E6A03EC08F000010C50265C086E0D50B9
:100610002758096E0E5028580A6E0F5029580B6E35
:100620008EC010F08FC011F0640E1102F3CF11F0E4
:100630001002F3CF10F0F4501126126A136A11AEB3
:1006400002D0126813681050085C046E11500958EB
:10065000056E12500A58066E13500B58076E90C064
:1006600014F091C015F0E80E1502F3CF15F0030E4B
:100670001402F3501526E80E1402F3CF14F0F450D0
:100680001526166A176A15AE02D016681768145038
:10069000045C006E15500558016E16500658026E27
:1006A00017500758036E00C08AF001C08BF08AC053
:1006B00010F08BC011F00A0E1102F3CF11F01002EE
:1006C000F3CF10F0F4501126126A136A11AE02D063
:1006D00012681368D9CFE9FFDACFEAFFEECF26F030
:1006E000EECF27F0EECF28F0EFCF29F00A0E2B6ED9
:1006F0002C6A2D6A2E6A03EC08F000011050265C6B
:100700000C6E115027580D6E125028580E6E135053
:1007100029580F6E8CC014F08DC015F0640E1502B0
:10072000F3CF15F01402F3CF14F0F4501526166A27
:10073000176A15AE02D01668176814500C5C086E64
:1007400015500D58096E16500E580A6E17500F5856
:100750000B6E8EC018F08FC019F0E80E1902F3CF9F
:1007600019F0030E1802F3501926E80E1802F3CF01
:1007700018F0F45019261A6A1B6A19AE02D01A68CA
:100780001B681850085C046E19500958056E1A5001
:100790000A58066E1B500B58076E90C01CF091C093
:1007A0001DF0100E1D02F3CF1DF0270E1C02F3509A
:1007B0001D26100E1C02F3CF1CF0F4501D261E6ADD
:1007C0001F6A1DAE02D01E681F681C50045C006EBC
:1007D0001D500558016E1E500658026E1F500758D6
:1007E000036E00C088F001C089F0D9CFE9FFDACFED
:1007F000EAFFEECF26F0EECF27F0EECF28F0EFCFD6
:1008000029F00A0E2B6E2C6A2D6A2E6A03EC08F072
:1008100022C086F023C087F0040EE15C02E2E16AA8
:10082000E552E16EE552E7CFD9FF1200D9CFE6FFDE
:10083000E1CFD9FF040EE126A0C0DFFF010EA1C069
:10084000DBFF020EA2C0DBFF030EA3C0DBFFD9CF8C
:10085000E9FFDACFEAFFEECF26F0EECF27F0EECFBA
:1008600028F0EFCF29F0E80E2B6E030E2C6E2D6AC8
:100870002E6A03EC08F026C098F027C099F098C0C3
:1008800004F099C005F00A0E0502F3CF05F004024A
:10089000F3CF04F0F4500526066A076A05AE02D0CD
:1008A00006680768D9CFE9FFDACFEAFFEECF26F076
:1008B000EECF27F0EECF28F0EFCF29F0640E2B6EAD
:1008C0002C6A2D6A2E6A03EC08F000010450265CA5
:1008D000006E05502758016E06502858026E0750CA
:1008E0002958036E00C096F001C097F096C008F03A
:1008F00097C009F00A0E0902F3CF09F00802F3CFFE
:1009000008F0F45009260A6A0B6A09AE02D00A6898
:100910000B68D9CFE9FFDACFEAFFEECF26F0EECFB2
:1009200027F0EECF28F0EFCF29F00A0E2B6E2C6ABD
:100930002D6A2E6A03EC08F000010850265C046E54
:1009400009502758056E0A502858066E0B50295832
:10095000076E98C00CF099C00DF0640E0D02F3CF35
:100960000DF00C02F3CF0CF0F4500D260E6A0F6A56
:100970000DAE02D00E680F680C50045C006E0D5076
:100980000558016E0E500658026E0F500758036E40
:1009900000C094F001C095F0D9CFE9FFDACFEAFFAB
:1009A000EECF26F0EECF27F0EECF28F0EFCF29F0F4
:1009B0000A0E2B6E2C6A2D6A2E6A03EC08F022C0F8
:1009C00092F023C093F0040EE15C02E2E16AE5528A
:1009D000E16EE552E7CFD9FF1200D9CFE6FFE1CFB4
:1009E000D9FF040EE126A4C0DFFF010EA5C0DBFF86
:1009F000020EA6C0DBFF030EA7C0DBFFD9CFE9FFC5
:100A0000DACFEAFFEECF26F0EECF27F0EECF28F0D8
:100A1000EFCF29F0640E2B6E2C6A2D6A2E6A03EC40
:100A200008F026C09EF027C09FF09EC004F09FC033
:100A300005F00A0E0502F3CF05F00402F3CF04F02F
:100A4000F4500526066A076A05AE02D006680768F4
:100A5000D9CFE9FFDACFEAFFEECF26F0EECF27F0CD
:100A6000EECF28F0EFCF29F00A0E2B6E2C6A2D6AFC
:100A70002E6A03EC08F000010450265C006E05505D
:100A80002758016E06502858026E07502958036EE9
:100A900000C09CF001C09DF0D9CFE9FFDACFEAFF9A
:100AA000EECF26F0EECF27F0EECF28F0EFCF29F0F3
:100AB0000A0E2B6E2C6A2D6A2E6A03EC08F022C0F7
:100AC0009AF023C09BF0040EE15C02E2E16AE55279
:100AD000E16EE552E7CFD9FF1200D59CD596D584BB
:100AE000D582D590D59AD58EC20ED76EF70ED66E1A
:100AF000F288F18CF086F18AF294F28AF184F28E17
:100B0000949E0F0EC16E938093821200DACFE4FFA1
:100B1000E2CFDAFFE9CFE4FFEACFE4FFF6CFE4FF6C
:100B2000F7CFE4FFF5CFE4FFF3CFE4FFF4CFE4FF2A
:100B3000FACFE4FF00EE20F0140EE80403E3EECF5A
:100B4000E4FFFBD700EE00F0200EE80403E3EECF55
:100B5000E4FFFBD7E652F2A205D00001822B000E83
:100B60008323F292F0A005D00001842B000E852390
:100B7000F090F2A40ED0C20ED76EF70ED66E000122
:100B8000802B000E8123AEEC00F054DC87EC00F0EB
:100B9000F294E55200EE1FF0200EE80403E3E5CFE7
:100BA000EDFFFBD700EE33F0140EE80403E3E5CFCE
:100BB000EDFFFBD7E5CFFAFFE5CFF4FFE5CFF3FF7D
:100BC000E5CFF5FFE5CFF7FFE5CFF6FFE5CFEAFF8D
:100BD000E5CFE9FFE5CFDAFF1100D3680F0EC16E54
:100BE000946A956A936879DF7DEC00F03EEC01F041
:080BF000F4DE1CDEFBD712004D
:080BF800219E08D0219E29AEC8
:100C000005D0286C291EE86A2922218E29C023F0EC
:100C100028C022F0336A326A8E0E246E256A4AEFAB
:100C200007F0216A86EC07F09EEC07F021B62EEF64
:100C300007F021A205D021BA2EEF07F035EF07F01B
:100C400021BA41EF07F021A005D021B82EEF07F01F
:100C500041EF07F021B835EF07F0256A7F0E2A240F
:100C6000246EE86A25222F50245EE86A255A1A0E5F
:100C7000306E2A6A326A336A226A236A2C50275EEF
:100C80002D50285A2E50295A000E2A5A09E72C5066
:100C900027262D5028222E502922000E2A2201D04C
:100CA000328AD8902736283629362A36D8903236D6
:100CB000333622362336302EE1D72950281027101C
:100CC000D8A4328A4AEF07F0216A86EC07F09EEC3E
:100CD00007F021B62EEF07F021A205D021B82EEFA4
:100CE00007F035EF07F021AA05D021B02EEF07F06D
:100CF00035EF07F021B002D021A802D041EF07F074
:100D0000256A2F502A24246EE86A25227E0E245E4E
:100D1000E86A255A326A336A226A236A2E50290207
:100D2000F4CF23F0F3CF22F02D502902F3503326D5
:100D3000F4502222000E23222E502802F350332694
:100D4000F4502222000E23222C502902F350322686
:100D5000F4503322000E222223222D502802F35079
:100D60003226F4503322000E222223222E50270254
:100D7000F3503226F4503322000E222223222C502C
:100D80002802F4503226000E3322222223222D5034
:100D90002702F4503226000E3322222223224AEF69
:100DA00007F0206A2EAEDAEF06F02D6C2E1EE86AF0
:100DB0002E22201E29AEE2EF06F0286C291EE86ADA
:100DC0002922201E27EC08F029BEF2EF06F020AE03
:100DD000000C286C291EE86A2922246C251EE86A6A
:100DE0002522000C20BEE9EF06F02188FF0C216AC5
:100DF00086EC07F021B601EF07F021A20FD021B455
:100E000007D07F0E296EFF0E286E276E266E25D026
:100E1000800E296E01D0296A000EF6D721B0FBD7CB
:100E2000266A9F0E2A60EBD77E0E2A64F4D79E0EA8
:100E30002A5C07E0D89029322832273226322A2A23
:100E4000F6D721A40AD0266C271E281E291EE86A80
:100E500027222822292229AEDED712007F0E2A6EF1
:100E6000FF0E296E286E276E12007F0E21BEFF0E28
:100E70002A6E02D07F0E2A6E800E296E286A276A9B
:100E8000F3D721AE04D0800E2A6E296AF7D72A6ADA
:100E9000296AF4D72350221033103210F8E025BE0F
:100EA000F0D723BE0CD024502510EBE0D89032367A
:100EB0003336223623362406D8A02506F2D725500D
:100EC000D4E12428D2E032AE11D07F0E321402E1F8
:100ED00033A00CD0332AE86A2222232207E3D880E9
:100EE000233222323332242A2428BFE02450C9E09E
:100EF00033C027F022C028F02334296E24302A6E14
:100F000029322A9E21BE2A8E34EF07F029362A364E
:100F100002E32184217E06E121802A6A296A286A67
:100F2000276A12002A2803E0D88029321200D890BC
:100F3000293202E121821200218612002E362F363C
:100F400002E3218C217E06E121882F6A2E6A2D6A18
:100F50002C6A12002F2803E0D8802E321200D8907D
:080F60002E32EAE1218A1200A1
:080F68000E0EF66E000EF76E8E
:100F7000000EF86E00010900F550B76F0900F5503A
:100F8000B86F03E1B76701D03DD00900F550B26FEB
:100F90000900F550B36F0900F550B46F090009005E
:100FA000F550E96E0900F550EA6E090009000900E4
:100FB000F550B56F0900F550B66F09000900F6CF7E
:100FC000B9F0F7CFBAF0F8CFBBF0B2C0F6FFB3C0BC
:100FD000F7FFB4C0F8FF0001B55302E1B65307E0D4
:100FE0000900F550EE6EB507F8E2B607F9D7B9C0BB
:100FF000F6FFBAC0F7FFBBC0F8FF0001B707000E4D
:06100000B85BBFD712002F
:0A100600256A246A236A226A200E7C
:10101000E76ED890263627362836293622362336EC
:10102000243625362B50225C2C5023582D50245822
:101030002E50255809E32B50225E2C50235A2D5058
:0E104000245A2E50255A262AE72EE4D71200F5
:02104E00256A11
:10105000246A100EE76ED8902836293624362536B5
:101060002D50245C2E50255805E32D50245E2E5023
:0A107000255A282AE72EF0D71200B7
:06107A00000EF36E00EE13
:1010800000F0060E01D81200EA6002D0EE6AFCD72A
:0A109000F350E9601200EE6AFCD78D
:06109A0015EE00F025EE4A
:1010A00000F0F86A219CB4EC07F003EC00F0EDECE2
:0610B00005F0FBD7120061
:0A10B6000000000000000000000030
:1010C0000000000000000000000000000000000020
:1010D00000000000000000000000000000003031AF
:0810E00032333435363738395C
:020000040030CA
:0100010008F6
:00000001FF
