:020000040000FA
:0600000034EF01F01200D4
:0A00060001008602000080000000E7
:040010003D000000AF
:0C001400D9CFE6FFE1CFD9FF040EE126B2
:10002000DE6ADE6ADE6ADD6ADD52DD52D9CFE9FFC3
:10003000DACFEAFFD880800EEE54380EEE54010E6F
:10004000EE54000EEE540AE3D9CFE9FFDACFEAFF0F
:10005000EE2A000EEE22EE22EE22E8D7040EE15C3C
:1000600002E2E16AE552E16EE552E7CFD9FF120004
:10007000966A956A946A936A0F0EC16E1200000127
:100080000B0EC96F3A0EC86F320EC76F0A0ECC6FD7
:100090003B0ECB6FCA6B020EC725CD6F120000015D
:1000A000C851EA6A800FE96E000EEA22EF508B6EAB
:1000B000C751EA6A800FE96E000EEA22EF508C6E9B
:1000C000C951EA6A800FE96E000EEA22EF508A6E8B
:1000D00012000001C72B3C0EC75D0EE3C82BC76B97
:1000E0003C0EC85D09E3C92BC86BC76B0C0EC95D1C
:1000F00003E3C96BC86BC76B3C0EC85D02E3C92B39
:10010000C86B0C0EC95D01E3C969120080A002D062
:100110000001C82B120080A202D00001C92B1200DE
:100120000001CB51EA6A800FE96E000EEA22EF501F
:100130008B6E80C08CFFCC51EA6A800FE96E000E96
:10014000EA22EF508A6E80A006D0CB2B3C0ECB5D0E
:1001500002E3CC2BCB6B80A205D0CC2B0C0ECC5D5C
:1001600001E3CC6B12000001C851CB5D05E1C95120
:10017000CC5D02E18D8401D08D94120079DF7FDFA8
:100180009280928292849692EEDF80B405D087DFCF
:1001900041DF9FDFC0DFBADF80A405D03BDFC0DFD7
:0A01A00098DF97DF37DFF0D7120079
:0601AA00060EF66E000EC9
:1001B000F76E000EF86E00010900F550C26F0900DD
:1001C000F550C36F03E1C26701D03DD00900F5507F
:1001D000BD6F0900F550BE6F0900F550BF6F0900F3
:1001E0000900F550E96E0900F550EA6E09000900B2
:1001F0000900F550C06F0900F550C16F09000900F2
:10020000F6CFC4F0F7CFC5F0F8CFC6F0BDC0F6FF0B
:10021000BEC0F7FFBFC0F8FF0001C05302E1C153E9
:1002200007E00900F550EE6EC007F8E2C107F9D704
:10023000C4C0F6FFC5C0F7FFC6C0F8FF0001C20783
:08024000000EC35BBFD71200E2
:08024800000EF36E00EE00F061
:10025000060E01D81200EA6002D0EE6AFCD7F35015
:08026000E9601200EE6AFCD710
:0802680015EE00F025EE00F098
:10027000F86A019CD5EC00F042EC01F0BEEC00F015
:04028000FBD7120096
:02028400120066
:0A0286000001020304050607080941
:1002900010111213141516171819202122232425C2
:1002A0002627282930313233343536373839404122
:1002B0004243444546474849505152535455565776
:0302C0005859602A
:00000001FF
