:020000040000FA
:060000004EEF02F01200B9
:0A0006000100BA04000080000000B1
:040010001A000000D2
:0C001400D9CFE6FFE1CFD9FF040EE126B2
:10002000DE6ADE6ADE6ADD6ADD52DD52D9CFE9FFC3
:10003000DACFEAFF840EEE5C030EEE58000EEE58A7
:10004000000EEE580AE2D9CFE9FFDACFEAFFEE2A36
:10005000000EEE22EE22EE22E9D7040EE15C02E26F
:10006000E16AE552E16EE552E7CFD9FF1200D9CF40
:10007000E6FFE1CFD9FF020EE126DE6ADD6ADECFC0
:1000800002F0DDCF03F05A0E025C000E035805E2C9
:10009000DF2A010E01E3DB2AF2D7020EE15C02E265
:1000A000E16AE552E16EE552E7CFD9FF1200D9CF00
:1000B000E6FFE1CFD9FF8B908B928B948B84FE0E61
:1000C000DB508C6E8B94D3DFE552E7CFD9FF120063
:1000D000D9CFE6FFE1CFD9FF8B808B928B94FE0EB8
:1000E000DB508C6E8B848B94C2DFE552E7CFD9FF57
:1000F000120090DF380EE66EDADFE5520E0EE66E85
:10010000D6DFE552010EE66ED2DFE5521200D9CFFE
:10011000E6FFE1CFD9FF020EE126DE6ADD6ADECF1F
:1001200002F0DDCF03F0840E025C030E035805E2FB
:10013000DF2A010E01E3DB2AF2D7020EE15C02E2C4
:10014000E16AE552E16EE552E7CFD9FF120087EF91
:1001500000F0D9CFE6FFE1CFD9FF020EE126000182
:10016000846B856BDE6ADD6ADECF02F0DDCF03F0E3
:10017000033404E202500A08000E03541EE3DECFEB
:10018000E9FFDDCFEAFF860EE926000EEA22EFCF77
:1001900002F0DECFE9FFDDCFEAFF900EE926000E88
:1001A000EA22EF50025C04E10001842B000E85235B
:1001B000DF2A010E01E3DB2AD7D700010A0E8419DA
:1001C00001E1855102E1828E01D0829E020EE15C46
:1001D00002E2E16AE552E16EE552E7CFD9FF120093
:1001E000010EE66E64DFE5520001806B8169826971
:1001F00012008A908A828A8481B608D081A6FED7AE
:100200000001310E836F822B812B20D081B808D062
:1002100081A8FED70001340E836F822B812B16D06C
:1002200081BA08D081AAFED70001370E836F822BD6
:10023000812B0CD081BC05D081ACFED7D1DF000E64
:1002400005D08A808A828A84FF0E00D012008A80BC
:100250008A928A8481B608D081A6FED70001320E28
:10026000836F822B812B23D081B808D081A8FED741
:100270000001350E836F822B812B19D081BA08D0F3
:1002800081AAFED70001380E836F822B812B0FD0FD
:1002900081BC08D081ACFED70001300E836F822B69
:1002A000812B05D08A808A828A84FF0E00D01200BA
:1002B0008A808A828A9481B608D081A6FED70001FE
:1002C000330E836F822B812B1FD081B808D081A879
:1002D000FED70001350E836F822B812B15D081BA9A
:1002E00008D081AAFED70001390E836F822B812BA3
:1002F0000BD081BC04D081ACFED72BDF05D08A8027
:100300008A828A84FF0E00D01200D9CFE6FFE1CFA7
:10031000D9FF030EE1266DDFDF6E99DFE76E010E78
:10032000E7CFDBFFC5DFE76E020EE7CFDBFF0A0E8C
:10033000DF5C02E2DFCF83F00A0EF36E010EDBCF4B
:10034000F4FFF350F45C03E2010EDBCF83F00A0EFE
:10035000F36E020EDBCFF4FFF350F45C03E2020E07
:10036000DBCF83F082C0E9FFEA6AE9BEEA68860E65
:10037000E926000EEA2283C0EFFF030EE15C02E2F1
:10038000E16AE552E16EE552E7CFD9FF12000001C4
:100390008051815D13E1180EE76E8119E8AE02D03D
:1003A000813503D0E750D880815508E32A0EE66EE8
:1003B0008FDEE552020E00018027812B1200D368E8
:1003C0000F0EC16EF80E936E956A946A829E0001BC
:0E03D00081078FDEBCDE99DFDADFFCD712007A
:0203DE00060E09
:1003E000F66E000EF76E000EF86E00010900F55073
:1003F0009F6F0900F550A06F03E19F6701D03DD0CA
:100400000900F5509A6F0900F5509B6F0900F550EF
:100410009C6F09000900F550E96E0900F550EA6E7D
:10042000090009000900F5509D6F0900F5509E6F05
:1004300009000900F6CFA1F0F7CFA2F0F8CFA3F0A2
:100440009AC0F6FF9BC0F7FF9CC0F8FF00019D53C8
:1004500002E19E5307E00900F550EE6E9D07F8E2B9
:100460009E07F9D7A1C0F6FFA2C0F7FFA3C0F8FF0F
:0C04700000019F07000EA05BBFD7120028
:04047C00000EF36E0D
:1004800000EE00F0060E01D81200EA6002D0EE6A1B
:0C049000FCD7F350E9601200EE6AFCD7C4
:04049C0015EE00F069
:1004A00025EE00F0F86A019CEFEC01F05CEC02F044
:0804B000DFEC01F0FBD71200A4
:0204B800120030
:0604BA000000FF0000003D
:1004C0005F5F5F5F5F5F5F5F5F5F3430303238393F
:0404D00032325F5F06
:020000040030CA
:0100010008F6
:00000001FF
