:020000040000FA
:0600000082EF02F0120085
:0A0006000100220500008000000048
:040010006400000088
:0C0014000F9E08D00F9E07AE05D0066CB2
:10002000071EE86A07220F8E07C001F006C000F025
:10003000136A126A8E0E026E036A2AEF01F00F6ACB
:1000400066EC01F07EEC01F00FB60EEF01F00FA2AE
:1000500005D00FBA0EEF01F015EF01F00FBA21EF46
:1000600001F00FA005D00FB80EEF01F021EF01F065
:100070000FB815EF01F0036A7F0E0824026EE86ADC
:1000800003220D50025EE86A035A1A0E106E086AC7
:10009000126A136A006A016A0A50055E0B50065A1A
:1000A0000C50075A000E085A09E70A5005260B5053
:1000B00006220C500722000E082201D0128AD89086
:1000C0000536063607360836D8901236133600360F
:1000D0000136102EE1D7075006100510D8A4128A59
:1000E0002AEF01F00F6A66EC01F07EEC01F00FB62A
:1000F0000EEF01F00FA205D00FB80EEF01F015EFD3
:1001000001F00FAA05D00FB00EEF01F015EF01F0CE
:100110000FB002D00FA802D021EF01F0036A0D50FA
:100120000824026EE86A03227E0E025EE86A035A21
:10013000126A136A006A016A0C500702F4CF01F0D8
:10014000F3CF00F00B500702F3501326F4500022B7
:10015000000E01220C500602F3501326F450002228
:10016000000E01220A500702F3501226F450132207
:10017000000E002201220B500602F3501226F4500A
:100180001322000E002201220C500502F350122609
:10019000F4501322000E002201220A500602F450ED
:1001A0001226000E1322002201220B500502F450E9
:1001B0001226000E1322002201222AEF01F00F6AFC
:1001C00066EC01F00FB6E9EF00F00FA20ED00FB40D
:1001D00005D07F0E076EFF0E066E1FD0800E076ED5
:1001E000066A1BD0076A066A18D00FB0FBD78F0EBD
:1001F0000860EDD77E0E0864F5D78E0E085C05E02A
:10020000D89007320632082AF8D70FA406D0066C19
:10021000071EE86A072207AEE5D712007F0E086EB8
:10022000FF0E076E066E056E12007F0E0FBEFF0EEC
:10023000086E02D07F0E086E800E076E066A056A91
:10024000F3D70FAE04D0800E086E076AF7D7086A9E
:10025000076AF4D70150001013101210F8E003BE23
:10026000F0D701BE0CD002500310EBE0D89012364C
:100270001336003601360206D8A00306F2D7035023
:10028000D4E10228D2E012AE11D07F0E121402E1A6
:1002900013A00CD0132AE86A0022012207E3D880B9
:1002A000013200321332022A0228BFE00250C9E0B4
:1002B00013C005F000C006F00134076E0230086E6E
:1002C0000732089E0FBE088E14EF01F0073608367D
:1002D00002E30F840F7E06E10F80086A076A066A50
:1002E000056A1200082803E0D88007321200D8906F
:1002F000073202E10F8212000F8612000C360D3613
:1003000002E30F8C0F7E06E10F880D6A0C6A0B6A00
:100310000A6A12000D2803E0D8800C321200D8902F
:080320000C32EAE10F8A120021
:08032800D9CFE6FFE1CFD9FFB8
:10033000E652DF6A1D0EDF5C02E2DF2AFBD7E552E0
:10034000E552E7CFD9FF12000001EE6BEF6B83B0EF
:10035000FED783A0FED783A006D0E6DF0001EE2BF8
:10036000000EEF23F8D783B006D0DEDF0001EE2BBE
:10037000000EEF23F8D71200146A156A800E166E6D
:100380003F0E176EEEC006F0EFC007F00AEC00F06B
:1003900005C01CF006C01DF007C01EF008C01FF00D
:1003A000170E0A6EB70E0B6ED10E0C6E380E0D6E58
:1003B0001CC005F01DC006F01EC007F01FC008F0ED
:1003C00072EC00F005C018F006C019F007C01AF072
:1003D00008C01BF018C00AF019C00BF01AC00CF0CE
:1003E0001BC00DF014C005F015C006F016C007F0D4
:1003F00017C008F01FEC00F0DFEC00F006C0F0F0D2
:1004000007C0F1F012000001630ED880F055000E15
:10041000F15505E30A0EF05D000EF15903E2EE0E10
:10042000826E08D0800EF025E96E000EF121EA6E92
:10043000EF50826E12009580946A76DF85DF9CDF34
:06044000E2DFFCD7120010
:0A044600060EF66E000EF76E000EB3
:10045000F86E00010900F550E96F0900F550EA6FE8
:1004600003E1E96701D03DD00900F550E46F0900D0
:10047000F550E56F0900F550E66F09000900F550E9
:10048000E96E0900F550EA6E090009000900F5500F
:10049000E76F0900F550E86F09000900F6CFEBF0AF
:1004A000F7CFECF0F8CFEDF0E4C0F6FFE5C0F7FFD2
:1004B000E6C0F8FF0001E75302E1E85307E0090056
:1004C000F550EE6EE707F8E2E807F9D7EBC0F6FF64
:1004D000ECC0F7FFEDC0F8FF0001E907000EEA5B92
:0404E000BFD7120070
:0C04E400000EF36E00EE00F0060E01D8D2
:1004F0001200EA6002D0EE6AFCD7F350E960120005
:04050000EE6AFCD7CC
:0C05040015EE00F025EE00F0F86A0F9CE8
:1005100023EC02F090EC02F01BEC02F0FBD712008F
:020520001200C7
:0E052200000102030405060708091011121358
:1005300014151617181920212223242526272829C7
:10054000303132333435363738394041424344450F
:10055000464748495051525354555657585960616F
:1005600062636465666768697071727374757677C3
:100570007879808182838485868788899091929317
:06058000949596979899EE
:00000001FF
