:020000040000FA
:06000000E9EF01F012001F
:020006000000F8
:08000800D9CFE6FFE1CFD9FFDB
:10001000040EE126DE6ADE6ADE6ADD6ADD52DD524A
:10002000D9CFE9FFDACFEAFF280EEE5C230EEE58B7
:10003000000EEE58000EEE580AE2D9CFE9FFDACFF3
:10004000EAFFEE2A000EEE22EE22EE22E9D7040E9F
:10005000E15C02E2E16AE552E16EE552E7CFD9FFE9
:100060001200D9CFE6FFE1CFD9FF020EE126DE6A0A
:10007000DD6ADECF02F0DDCF03F0840E025C030EFA
:10008000035805E2DF2A010E01E3DB2AF2D7020E54
:10009000E15C02E2E16AE552E16EE552E7CFD9FFA9
:1000A0001200D9CFE6FFE1CFD9FF8B908B928B94D2
:1000B0008B84FE0EDB508C6E8B94D3DFE552E7CF42
:1000C000D9FF1200D9CFE6FFE1CFD9FF8B808B9209
:1000D0008B94FE0EDB508C6E8B848B94C2DFE552CA
:1000E000E7CFD9FF120090DF380EE66EDADFE55277
:1000F0000E0EE66ED6DFE552010EE66ED2DFE55259
:100100001200400EE66ECDDFE5520E0EE66EDADF2F
:10011000E552110EE66ED6DFE552110EE66ED2DF25
:10012000E552110EE66ECEDFE552110EE66ECADF25
:10013000E552110EE66EC6DFE5521F0EE66EC2DF17
:10014000E5521F0EE66EBEDFE5520E0EE66EBADF1A
:10015000E552110EE66EB6DFE552110EE66EB2DF25
:10016000E552110EE66EAEDFE552110EE66EAADF25
:10017000E5521F0EE66EA6DFE5521F0EE66EA2DF09
:10018000E5521F0EE66E9EDFE5520E0EE66E9ADF1A
:10019000E552110EE66E96DFE552110EE66E92DF25
:1001A000E552110EE66E8EDFE5521F0EE66E8ADF17
:1001B000E5521F0EE66E86DFE5521F0EE66E82DF09
:1001C000E5521F0EE66E7EDFE5520E0EE66E7ADF1A
:1001D000E552110EE66E76DFE552110EE66E72DF25
:1001E000E5521F0EE66E6EDFE5521F0EE66E6ADF09
:1001F000E5521F0EE66E66DFE5521F0EE66E62DF09
:10020000E5521F0EE66E5EDFE5520E0EE66E5ADF19
:10021000E552110EE66E56DFE5521F0EE66E52DF16
:10022000E5521F0EE66E4EDFE5521F0EE66E4ADF08
:10023000E5521F0EE66E46DFE5521F0EE66E42DF08
:10024000E5521F0EE66E3EDFE5520E0EE66E3ADF19
:10025000E5521F0EE66E36DFE5521F0EE66E32DF08
:10026000E5521F0EE66E2EDFE5521F0EE66E2ADF08
:10027000E5521F0EE66E26DFE5521F0EE66E22DF08
:10028000E5521F0EE66E1EDFE5521200956A946A73
:100290002ADF37DF800EE66E04DFE552E66A12DF02
:1002A000E552B2DE800EE66EFCDEE552010EE66E31
:1002B00009DFE552A9DE800EE66EF3DEE552020E9E
:1002C000E66E00DFE552A0DE800EE66EEADEE55265
:1002D000030EE66EF7DEE55297DE800EE66EE1DE97
:1002E000E552040EE66EEEDEE5528EDE800EE66E20
:1002F000D8DEE552050EE66EE5DEE55285DE800EBF
:10030000E66ECFDEE552060EE66EDCDEE5527CDE02
:04031000C1D712003F
:0C031400060EF66E000EF76E000EF86E7E
:1003200000010900F550856F0900F550866F03E163
:10033000856701D03DD00900F550806F0900F55068
:10034000816F0900F550826F09000900F550E96ED0
:100350000900F550EA6E090009000900F550836FA5
:100360000900F550846F09000900F6CF87F0F7CF38
:1003700088F0F8CF89F080C0F6FF81C0F7FF82C017
:10038000F8FF0001835302E1845307E00900F550B0
:10039000EE6E8307F8E28407F9D787C0F6FF88C0BE
:1003A000F7FF89C0F8FF00018507000E865BBFD705
:0203B000120039
:0E03B200000EF36E00EE00F0060E01D81200F1
:1003C000EA6002D0EE6AFCD7F350E9601200EE6AF0
:0203D000FCD758
:0E03D20015EE00F025EE00F0F86A019C8AECB2
:0E03E00001F0F7EC01F046EC01F0FBD7120043
:0203EE001200FB
:00000001FF
