:020000040000FA
:060000009CEF03F012006A
:020006001200E6
:0600080087EF01F0120079
:02000E000100EF
:0C00100054070000800000002C000000DD
:04001C000001902B24
:10002000000E9123802B8123090E81AF02D0D8903E
:1000300003D0805D000E815905E3806B816B822BBC
:10004000000E8323050E83AF02D0D89003D0825DCB
:10005000000E835905E3826B836B842B000E85238E
:10006000090E85AF02D0D89003D0845D000E85596B
:1000700005E3846B856B862B000E8723050E87AF07
:1000800002D0D89003D0865D000E875905E3866BB9
:10009000876B882B000E8923090E89AF02D0D89078
:1000A00003D0885D000E895905E3886B896B8A2B24
:1000B000000E8B23020E8BAF02D0D89003D08A5D46
:1000C000000E8B5915E3040E8BAF02D0D89003D0ED
:1000D0008A5D000E8B590CE3806B816B826B836BA6
:1000E000846B856B866B876B886B896B8A6B8B6B7C
:1000F0001200D9CFE6FFE1CFD9FF020EE126FD0EB7
:10010000DBCF00F0FE0EDBCF01F0013404E2005043
:100110000008000E015416E2DE6ADD6ADECF00F050
:10012000DDCF01F0830E005C000E015805E2DF2AEE
:10013000010E01E3DB2AF2D7FD0EDB06FE0E01E223
:10014000DB06DDD7020EE15C02E2E16AE552E16E18
:10015000E552E7CFD9FF1200D9CFE6FFE1CFD9FFB3
:10016000020EE126FD0EDBCF00F0FE0EDBCF01F02C
:10017000013404E200500008000E015420E2E90EB0
:10018000E66E030EE66EB5DFE552E552DE6ADD6A25
:10019000DECF00F0DDCF01F0D890015004E63C0E38
:1001A000005C000E015805E2DF2A010E01E3DB2AA4
:1001B000EFD7FD0EDB06FE0E01E2DB06D3D7020E03
:1001C000E15C02E2E16AE552E16EE552E7CFD9FF78
:1001D0001200D9CFE6FFE1CFD9FF020EE126DE6A99
:1001E000DD6ADECF00F0DDCF01F06C0E005C000EAA
:1001F000015805E2DF2A010E01E3DB2AF2D7020EE5
:10020000E15C02E2E16AE552E16EE552E7CFD9FF37
:100210001200D9CFE6FFE1CFD9FF020EE126DE6A58
:10022000DD6ADECF00F0DDCF01F0350E005C000EA0
:10023000015805E2DF2A010E01E3DB2AF2D7020EA4
:10024000E15C02E2E16AE552E16EE552E7CFD9FFF7
:100250001200D9CFE6FFE1CFD9FF040EE126010E4F
:10026000DE6EDD6A020EDB6A030EDB6A8280B1DFBE
:100270008290AFDF020EDB6A030EDB6AD950020FF9
:10028000E96EDACFEAFF070ED880EE54000EED5487
:100290001FE3FE0EDBCF02F0036A02BE0368DE50EE
:1002A0000214006EDD500314016E0050E8B082802D
:1002B000E8A082908EDFFE0EDB407F0BE76EFE0E25
:1002C000E7CFDBFF020EDB2A030E01E3DB2AD6D7E2
:1002D00082807FDF040EE15C02E2E16AE552E16EBA
:1002E000E552E7CFD9FF1200D59CD596D584D582AB
:1002F000D590D59AD58EC20ED76EF70ED66EF294E3
:10030000F28AF184F28E949E0F0EC16E1200DACF43
:10031000E4FFE2CFDAFFE9CFE4FFEACFE4FFF6CF74
:10032000E4FFF7CFE4FFF5CFE4FFF3CFE4FFF4CF32
:10033000E4FFFACFE4FF00EE04F0020EE80403E36A
:10034000EECFE4FFFBD700EE00F0040EE80403E379
:10035000EECFE4FFFBD7E652F2B2F292F2A406D05F
:10036000C20ED76EF70ED66E59DEF294E55200EE4D
:1003700003F0040EE80403E3E5CFEDFFFBD700EE46
:1003800005F0020EE80403E3E5CFEDFFFBD7E5CF70
:10039000FAFFE5CFF4FFE5CFF3FFE5CFF5FFE5CFBB
:1003A000F7FFE5CFF6FFE5CFEAFFE5CFE9FFE5CFC1
:1003B000DAFF11007A0EE66E4CDFE5526F0EE66E44
:1003C00048DFE5526E0EE66E44DFE552610EE66EE2
:1003D00040DFE5523A0EE66E3CDFE5521200280E91
:1003E000E66E37DFE552A20E00018A25E96E000EA7
:1003F0008B21EA6EEF50E66E2CDFE552A20E000173
:100400008825E96E000E8921EA6EEF50E66E21DF45
:10041000E5523A0EE66E1DDFE552A20E000186257A
:10042000E96E000E8721EA6EEF50E66E12DFE552AC
:10043000A20E00018425E96E000E8521EA6EEF50C0
:10044000E66E07DFE5523A0EE66E03DFE552A20ED6
:1004500000018225E96E000E8321EA6EEF50E66E00
:10046000F8DEE552A20E00018025E96E000E812122
:10047000EA6EEF50E66EEDDEE552290EE66EE9DE3D
:10048000E552120000019A519B1129E18150800B25
:1004900026E090DF310EE66EDCDEE5525F0EE66EA2
:1004A000D8DEE552030E000190258C6F000E9121DD
:1004B0008D6F95DF00018D519119E8AE02D0913515
:1004C00004D090518C5D91518D5904E3640ECB6E34
:1004D000BE6EF0D7CB6ABE6A010E9A6F9B6B9C51C1
:1004E0009D1129E18150400B26E064DF320EE66E5B
:1004F000B0DEE5525F0EE66EACDEE552030E0001A3
:1005000090258C6F000E91218D6F69DF00018D5158
:100510009119E8AE02D0913504D090518C5D915183
:100520008D5904E3780ECB6EBE6EF0D7CB6ABE6AEF
:10053000010E9C6F9D6B9E519F1129E18150200BF4
:1005400026E038DF330EE66E84DEE5525F0EE66E9F
:1005500080DEE552030E000190258C6F000E912184
:100560008D6F3DDF00018D519119E8AE02D09135BC
:1005700004D090518C5D91518D5904E38C0ECB6E5B
:10058000BE6EF0D7CB6ABE6A010E9E6F9F6BA05104
:10059000A11129E18150100B26E00CDF340EE66E2C
:1005A00058DEE5525F0EE66E54DEE552030E0001A2
:1005B00090258C6F000E91218D6F11DF00018D5100
:1005C0009119E8AE02D0913504D090518C5D9151D3
:1005D0008D5904E3A00ECB6EBE6EF0D7CB6ABE6A17
:1005E000010EA06FA16B120081AE05D04BDF010E92
:1005F00000019A6F9B6B81AC05D044DF010E0001B6
:100600009C6F9D6B81AA05D03DDF010E00019E6F9E
:100610009F6B81A805D036DF010E0001A06FA16B92
:1006200081BE03D000019A6B9B6B81BC03D000019B
:100630009C6B9D6B81BA03D000019E6B9F6B81B850
:1006400003D00001A06BA16B12009494CA82CA80EF
:10065000CA84CB6ABE6ABD9ABD98BD86BD84BD9270
:10066000BD9094909482D3680F0EC16EF80E936E75
:0A06700093683ADEB9DFFED71200EE
:06067A000E0EF66E000EEC
:10068000F76E000EF86E00010900F550B16F090019
:10069000F550B26F03E1B16701D03DD00900F550CC
:1006A000AC6F0900F550AD6F0900F550AE6F090051
:1006B0000900F550E96E0900F550EA6E09000900DD
:1006C0000900F550AF6F0900F550B06F090009003F
:1006D000F6CFB3F0F7CFB4F0F8CFB5F0ACC0F6FF7B
:1006E000ADC0F7FFAEC0F8FF0001AF5302E1B05359
:1006F00007E00900F550EE6EAF07F8E2B007F9D752
:10070000B3C0F6FFB4C0F7FFB5C0F8FF0001B107F2
:08071000000EB25BBFD712001E
:08071800000EF36E00EE00F08C
:10072000060E01D81200EA6002D0EE6AFCD7F35040
:08073000E9601200EE6AFCD73B
:0807380015EE00F025EE00F0C3
:10074000F86A059C3DEC03F003EC00F025EC03F0A7
:04075000FBD71200C1
:0C07540000000000000000000000000099
:100760000000000000000000000000000000000089
:10077000000000000000303132333435363738396C
:020000040030CA
:0100010008F6
:00000001FF
