:020000040000FA
:060000009FEF03F0120067
:0A00060001005C070000800000000C
:040010001E000000CE
:0C001400D9CFE6FFE1CFD9FF040EE126B2
:10002000DE6ADE6ADE6ADD6ADD52DD52D9CFE9FFC3
:10003000DACFEAFF280EEE5C230EEE58000EEE58E3
:10004000000EEE580AE2D9CFE9FFDACFEAFFEE2A36
:10005000000EEE22EE22EE22E9D7040EE15C02E26F
:10006000E16AE552E16EE552E7CFD9FF1200D9CF40
:10007000E6FFE1CFD9FF020EE126DE6ADD6ADECFC0
:1000800014F0DDCF15F05A0E145C000E155805E281
:10009000DF2A010E01E3DB2AF2D7020EE15C02E265
:1000A000E16AE552E16EE552E7CFD9FF1200D9CF00
:1000B000E6FFE1CFD9FF8B808B848B92FE0EDB5065
:1000C0008C6E8B94D4DFE552E7CFD9FF1200D9CFE5
:1000D000E6FFE1CFD9FF8B908B848B92FE0EDB5035
:1000E0008C6E8B928B94C3DFE552E7CFD9FF120061
:1000F000380EE66EECDFE5520C0EE66EE8DFE552F8
:10010000010EE66EE4DFE5521200C280C186C184B2
:10011000C192C180C19AC198BC0EC06E946A7ADF48
:1001200078EF00F077DF800EE66ED1DFE552000158
:10013000986B996B0C0E99AF02D0D89003D0985D54
:10014000000E99590FE2800E9825E96E000E992154
:10015000EA6EEF50E66EABDFE5520001982B000E21
:100160009923E8D7C00EE66EB2DFE55200019A6B24
:100170009B6B0D0E9BAF02D0D89003D09A5D000E02
:100180009B590FE28C0E9A25E96E000E9B21EA6EB8
:10019000EF50E66E8CDFE55200019A2B000E9B2398
:1001A000E8D71200D9CFE6FFE1CFD9FF0A0EE1264A
:1001B000DE6ADE6AA00EDE6E3B0EDD6EDD52DD52C3
:1001C000AEC008F0AFC009F0CFEC01F0000EDFCFF9
:1001D0000CF0010EDBCF0DF0020EDBCF0EF0030EA4
:1001E000DBCF0FF0E2EC01F0040E07C0DBFF050EE1
:1001F00008C0DBFF060E09C0DBFF070E0AC0DBFFED
:10020000040EDBCF14F0050EDBCF15F0060EDBCFAE
:1002100016F0070EDBCF17F00C6A0D6AC80E0E6ED3
:10022000420E0F6E14C007F015C008F016C009F09A
:1002300017C00AF0E2EC01F075EC02F0080E08C0FD
:10024000DBFF090E09C0DBFF040EDBCF07F0050E54
:10025000DBCF08F0060EDBCF09F0070EDBCF0AF08C
:1002600075EC02F008C0A8F009C0A9F0D950080F39
:10027000E96EDACFEAFF640E0D6E0E6AEECF08F07B
:10028000EDCF09F04FEC02F004C0EEFF05C0EDFF2A
:10029000080EDBCFAAF0090EDBCFABF00A0E0D6E15
:1002A0000E6AAAC008F0ABC009F04FEC02F008C01B
:1002B000AAF009C0ABF0D950080FE96EDACFEAFF17
:1002C0000A0E0D6E0E6AEECF08F0EDCF09F04FEC7E
:1002D00002F004C0EEFF05C0EDFF080EDBCFACF06E
:1002E000090EDBCFADF0C2A405D0880EE66EEFDEBE
:1002F000E55204D0C80EE66EEADEE552300E00018B
:10030000A825E66ED4DEE5522C0EE66ED0DEE55270
:10031000300E0001AA25E66ECADEE552300E00015D
:10032000AC25E66EC4DEE5520A0EE15C02E2E16A4B
:10033000E552E16EE552E7CFD9FF1200956AE5DE9E
:10034000F1DEC29AC298C296C294C282C2B2FED7ED
:10035000C450146E156A14C015F0146AC35000011D
:100360001424AE6F000E1520AF6F1CDFC29AC29826
:10037000C296C284C282C2B2FED7C450146E156A3D
:1003800014C015F0146AC35000011424AE6F000E9F
:0A0390001520AF6F07DFD5D712006C
:06039A00019E08D0019E47
:1003A00009AE05D0086C091EE86A0922018E09C051
:1003B00003F008C002F0136A126A8E0E046E056A1A
:1003C000C0EF02F0016AFCEC02F014EC03F001B69D
:1003D000A4EF02F001A205D001B8A4EF02F0ABEF48
:1003E00002F001AA05D001B0A4EF02F0ABEF02F0D9
:1003F00001B002D001A802D0B7EF02F0056A0F5099
:100400000A24046EE86A05227E0E045EE86A055A34
:10041000126A136A026A036A0E500902F4CF03F0EB
:10042000F3CF02F00D500902F3501326F4500222CC
:10043000000E03220E500802F3501326F45002223D
:10044000000E03220C500902F3501226F45013221E
:10045000000E022203220D500802F3501226F4501F
:100460001322000E022203220E500702F35012261E
:10047000F4501322000E022203220C500802F45002
:100480001226000E1322022203220D500702F450FE
:100490001226000E132202220322C0EF02F0006A8D
:1004A0000EAE58EF02F00D6C0E1EE86A0E22001E12
:1004B00009AE60EF02F0086C091EE86A0922001E0E
:1004C00079EC03F009BE70EF02F000AE000C086C8E
:1004D000091EE86A0922046C051EE86A0522000C60
:1004E00000BE67EF02F00188FF0C016AFCEC02F02D
:1004F00001B67FEF02F001A20ED001B405D07F0E4D
:10050000096EFF0E086E1FD0800E096E086A1BD0A0
:10051000096A086A18D001B0FBD78F0E0A60EDD7C0
:100520007E0E0A64F5D78E0E0A5C05E0D89009327B
:1005300008320A2AF8D701A406D0086C091EE86A16
:10054000092209AEE5D712007F0E0A6EFF0E096E72
:10055000086E076E12007F0E01BEFF0E0A6E02D0FB
:100560007F0E0A6E800E096E086A076AF3D701AE25
:1005700004D0800E0A6E096AF7D70A6A096AF4D7AE
:100580000350021013101210F8E005BEF0D703BE9E
:100590000CD004500510EBE0D8901236133602361A
:1005A00003360406D8A00506F2D70550D4E1042886
:1005B000D2E012AE11D07F0E121402E113A00CD0C3
:1005C000132AE86A0222032207E3D88003320232A8
:1005D0001332042A0428BFE00450C9E013C007F016
:1005E00002C008F00334096E04300A6E09320A9E14
:1005F00001BE0A8EAAEF02F009360A3602E3018430
:10060000017E06E101800A6A096A086A076A120027
:100610000A2803E0D88009321200D890093202E19A
:1006200001821200018612000E360F3602E3018CA1
:10063000017E06E101880F6A0E6A0D6A0C6A1200DB
:100640000F2803E0D8800E321200D8900E32EAE173
:04065000018A120009
:0C065400060EF66E000EF76E000EF86E3B
:1006600000010900F550A36F0900F550A46F03E1E4
:10067000A36701D03DD00900F5509E6F0900F550E9
:100680009F6F0900F550A06F09000900F550E96E51
:100690000900F550EA6E090009000900F550A16F44
:1006A0000900F550A26F09000900F6CFA5F0F7CFB9
:1006B000A6F0F8CFA7F09EC0F6FF9FC0F7FFA0C03E
:1006C000F8FF0001A15302E1A25307E00900F55031
:1006D000EE6EA107F8E2A207F9D7A5C0F6FFA6C003
:1006E000F7FFA7C0F8FF0001A307000EA45BBFD768
:0206F0001200F6
:0E06F200056A046A100EE76ED89008360936C5
:10070000043605360D50045C0E50055805E30D50B7
:0E071000045E0E50055A082AE72EF0D712009C
:02071E00000ECB
:10072000F36E00EE00F0060E01D81200EA6002D06F
:0E073000EE6AFCD7F350E9601200EE6AFCD7C7
:02073E0015EEB6
:1007400000F025EE00F0F86A019C2AEC03F0ADEC15
:0A07500003F09EEC01F0FBD712004D
:02075A0012008B
:04075C0053696E610E
:100760006C5F313A302C303053696E616C5F323AD5
:0A077000302C303000000000FEFFC6
:00000001FF
