:020000040000FA
:06000000E4EF0FF0120016
:0A0006000100E61F0000800000006A
:04001000510000009B
:0C001400D9CFE6FFE1CFD9FF020EE126B4
:10002000DE6ADD6ADECF00F0DDCF01F01E0E005C7F
:10003000050E015805E2DF2A010E01E3DB2AF2D7A3
:10004000020EE15C02E2E16AE552E16EE552E7CFC1
:10005000D9FF12009CC0ABF00001AC6BABBFAC6928
:100060009BC0ADF0AE6BADBFAE699AC0AFF0B06BE8
:10007000AFBFB06999C0B1F0B26BB1BFB26998C0FF
:10008000B3F0B46BB3BFB46997C0B5F0B66BB5BF8E
:10009000B669976B986B996B9A6B9B6B9C6B010E17
:1000A000A46FA36B12009CC0ABF00001AC6BABBFA4
:1000B000AC699BC0ADF0AE6BADBFAE699AC0AFF09E
:1000C000B06BAFBFB06999C0B1F0B26BB1BFB269EC
:1000D00098C0B3F0B46BB3BFB46997C0B5F0B66B5A
:1000E000B5BFB669976B986B996B9A6B9B6B9C6B62
:1000F000020EA46FA36B12009CC0ABF00001AC6BAE
:10010000ABBFAC699BC0ADF0AE6BADBFAE699AC082
:10011000AFF0B06BAFBFB06999C0B1F0B26BB1BF17
:10012000B26998C0B3F0B46BB3BFB46997C0B5F00F
:10013000B66BB5BFB669976B986B996B9A6B9B6BF7
:100140009C6B030EA46FA36B12009CC0ABF000016C
:10015000AC6BABBFAC699BC0ADF0AE6BADBFAE6975
:100160009AC0AFF0B06BAFBFB06999C0B1F0B26BDD
:10017000B1BFB26998C0B3F0B46BB3BFB46997C0F4
:10018000B5F0B66BB5BFB669976B986B996B9A6B08
:100190009B6B9C6B040EA46FA36B12000001160EE8
:1001A000976F986F996F9A6F9B6F9C6F1200D890A2
:1001B0000001A851000A08E63F0EA55D420EA659AF
:1001C0000F0EA759000EA85902E380EF07F0A835DB
:1001D000FF0EA81909E6D880610EA555790EA6551F
:1001E000FE0EA755FF0EA85502E380EF07F0800E24
:1001F000A81502E067EF06F0C5C026F0C6C027F0DC
:10020000C7C028F0C8C029F0C9C02BF0CAC02CF064
:10021000CBC02DF0CCC02EF02EC0F5FF62EC0EF05E
:10022000F5AE08D0000E226C231E2322241E2422A9
:10023000251E252222C000F023C001F024C002F0B8
:1002400025C003F0005001100210031001E1B5D3E6
:100250000001CC35000ECC1909E6D8800A0EC9552C
:10026000000ECA55000ECB55000ECC5501E2C9D187
:10027000C5C000F0C6C001F0C7C002F0C8C003F09E
:100280000A0E2B6E2C6A2D6A2E6A00C026F001C061
:1002900027F002C028F003C029F05BEC0FF022C069
:1002A00000F023C001F024C002F025C003F000C01C
:1002B00026F001C027F002C028F003C029F0C9C011
:1002C0002BF0CAC02CF0CBC02DF0CCC02EF062ECCD
:1002D0000EF026C0CDF027C0CEF028C0CFF029C048
:1002E000D0F0CDC026F0CEC027F0CFC028F0D0C0CF
:1002F00029F0A00E2B6E860E2C6E010E2D6E2E6A2E
:1003000062EC0EF026C097F00A0E00019703F3CFBF
:1003100004F0056A066A076A04AE03D00568066839
:100320000768CDC026F0CEC027F0CFC028F0D0C0DF
:1003300029F0100E2B6E270E2C6E2D6A2E6A62ECA1
:100340000EF000010450265C006E05502758016E27
:1003500006502858026E07502958036E00C098F0C6
:100360000A0E00019803F3CF08F0096A0A6A0B6AC3
:1003700008AE03D009680A680B68CDC026F0CEC06D
:1003800027F0CFC028F0D0C029F0E80E2B6E030E66
:100390002C6E2D6A2E6A62EC0EF000010850265C6D
:1003A000046E09502758056E0A502858066E0B50E7
:1003B0002958076E640E00019703F3CF0CF00D6A05
:1003C0000E6A0F6A0CAE03D00D680E680F680C50F1
:1003D000045C006E0D500558016E0E500658026EFA
:1003E0000F500758036E00C099F00A0E9903F3CF1F
:1003F0000CF00D6A0E6A0F6A0CAE03D00D680E6821
:100400000F68CDC026F0CEC027F0CFC028F0D0C0F6
:1004100029F0640E2B6E2C6A2D6A2E6A62EC0EF0A7
:1004200000010C50265C086E0D502758096E0E50C6
:1004300028580A6E0F5029580B6E640E000198035D
:10044000F3CF10F0116A126A136A10AE03D011686C
:10045000126813681050085C046E11500958056E3C
:1004600012500A58066E13500B58076E97C014F0BE
:10047000156A14BE1568E80E1502F3CF15F0030EC9
:100480001402F3501526E80E1402F3CF14F0F450C2
:100490001526166A176A15AE02D01668176814502A
:1004A000045C006E15500558016E16500658026E19
:1004B00017500758036E00C09AF00A0E9A03F3CF44
:1004C00010F0116A126A136A10AE03D01168126834
:1004D0001368CDC026F0CEC027F0CFC028F0D0C022
:1004E00029F02B6E2C6A2D6A2E6A62EC0EF0000148
:1004F0001050265C0C6E115027580D6E1250285863
:100500000E6E135029580F6E640E00019903F3CF3D
:1005100014F0156A166A176A14AE03D015681668C7
:10052000176814500C5C086E15500D58096E165063
:100530000E580A6E17500F580B6E98C018F0196AB3
:1005400018BE1968E80E1902F3CF19F0030E18024D
:10055000F3501926E80E1802F3CF18F0F4501926BC
:100560001A6A1B6A19AE02D01A681B681850085C18
:10057000046E19500958056E1A500A58066E1B5021
:100580000B58076E97C01CF01D6A1CBE1D68100E2C
:100590001D02F3CF1DF0270E1C02F3501D26100E76
:1005A0001C02F3CF1CF0F4501D261E6A1F6A1DAEFC
:1005B00002D01E681F681C50045C006E1D50055858
:1005C000016E1E500658026E1F500758036E0A0E29
:1005D0000026000E01220222032200C09BF0CDC0A3
:1005E00026F0CEC027F0CFC028F0D0C029F00A0EE8
:1005F0002B6E2C6A2D6A2E6A62EC0EF022C09CF0E3
:10060000DBD1D890CC51000A08E6640EC95D000E1B
:10061000CA59000ECB59000ECC5901E3CBD1C5C04D
:1006200000F0C6C001F0C7C002F0C8C003F0640EFD
:100630002B6E2C6A2D6A2E6A00C026F001C027F0AE
:1006400002C028F003C029F05BEC0FF022C000F0DC
:1006500023C001F024C002F025C003F000C026F042
:1006600001C027F002C028F003C029F0C9C02BF058
:10067000CAC02CF0CBC02DF0CCC02EF062EC0EF036
:1006800026C0CDF027C0CEF028C0CFF029C0D0F0D2
:10069000CDC026F0CEC027F0CFC028F0D0C029F0C2
:1006A000A00E2B6E860E2C6E010E2D6E2E6A62EC45
:1006B0000EF026C097F00A0E00019703F3CF04F066
:1006C000056A066A076A04AE03D00568066807680B
:1006D000CDC026F0CEC027F0CFC028F0D0C029F082
:1006E000100E2B6E270E2C6E2D6A2E6A62EC0EF009
:1006F00000010450265C006E05502758016E06501C
:100700002858026E07502958036E00C098F00A0E50
:1007100000019803F3CF08F0096A0A6A0B6A08AE71
:1007200003D009680A680B68CDC026F0CEC027F058
:10073000CFC028F0D0C029F0E80E2B6E030E2C6E2F
:100740002D6A2E6A62EC0EF000010850265C046EE1
:1007500009502758056E0A502858066E0B50295824
:10076000076E640E00019703F3CF0CF00D6A0E6A5A
:100770000F6A0CAE03D00D680E680F680C50045C55
:10078000006E0D500558016E0E500658026E0F5047
:100790000758036E00C099F00A0E9903F3CF0CF0CE
:1007A0000D6A0E6A0F6A0CAE03D00D680E680F68F2
:1007B000CDC026F0CEC027F0CFC028F0D0C029F0A1
:1007C000640E2B6E2C6A2D6A2E6A62EC0EF000010C
:1007D0000C50265C086E0D502758096E0E50285894
:1007E0000A6E0F5029580B6E640E00019803F3CF68
:1007F00010F0116A126A136A10AE03D01168126801
:1008000013681050085C046E11500958056E1250A0
:100810000A58066E13500B58076E97C014F0156AED
:1008200014BE1568E80E1502F3CF15F0030E14027E
:10083000F3501526E80E1402F3CF14F0F4501526E9
:10084000166A176A15AE02D0166817681450045C51
:10085000006E15500558016E16500658026E17505E
:100860000758036E0A0E0026000E01220222032200
:1008700000C09AF00A0E9A5D0A0DF3CF10F0116ACB
:10088000126A136A10AE03D0116812681368CDC0E3
:1008900026F0CEC027F0CFC028F0D0C029F00A0E35
:1008A0002B6E2C6A2D6A2E6A62EC0EF0000110503D
:1008B000265C0C6E115027580D6E125028580E6E83
:1008C000135029580F6E640E00019903F3CF14F0F2
:1008D000156A166A176A14AE03D015681668176889
:1008E00014500C5C086E15500D58096E16500E58B9
:1008F0000A6E17500F580B6E98C018F0196A18BE80
:100900001968E80E1902F3CF19F0030E1802F3501C
:100910001926E80E1802F3CF18F0F45019261A6AB7
:100920001B6A19AE02D01A681B681850085C046E66
:1009300019500958056E1A500A58066E1B500B586C
:10094000076E97C01CF01D6A1CBE1D68100E1D02AC
:10095000F3CF1DF0270E1C02F3501D26100E1C02B3
:10096000F3CF1CF0F4501D261E6A1F6A1DAE02D084
:100970001E681F681C50045C006E1D500558016EF7
:100980001E500658026E1F500758036E00C09BF0A1
:10099000CDC026F0CEC027F0CFC028F0D0C029F0BF
:1009A0000A0E2B6E2C6A2D6A2E6A62EC0EF022C0A3
:1009B0009CF002D0CEEC00F089D1A5C026F0A6C0F4
:1009C00027F0A7C028F0A8C029F0A00E2B6E860E35
:1009D0002C6E010E2D6E2E6A62EC0EF026C097F082
:1009E0000A0E00019703F3CF04F0056A066A076A4E
:1009F00004AE03D0056806680768A5C026F0A6C047
:100A000027F0A7C028F0A8C029F0100E2B6E270EE3
:100A10002C6E2D6A2E6A62EC0EF000010450265CEA
:100A2000006E05502758016E06502858026E075078
:100A30002958036E00C098F00A0E00019803F3CF06
:100A400008F0096A0A6A0B6A08AE03D009680A68E6
:100A50000B68A5C026F0A6C027F0A7C028F0A8C044
:100A600029F0E80E2B6E030E2C6E2D6A2E6A62ECB6
:100A70000EF000010850265C046E09502758056EE0
:100A80000A502858066E0B502958076E640E000154
:100A90009703F3CF0CF00D6A0E6A0F6A0CAE03D009
:100AA0000D680E680F680C50045C006E0D50055800
:100AB000016E0E500658026E0F500758036E00C0AC
:100AC00099F00A0E9903F3CF0CF00D6A0E6A0F6AC3
:100AD0000CAE03D00D680E680F68A5C026F0A6C046
:100AE00027F0A7C028F0A8C029F0640E2B6E2C6A4E
:100AF0002D6A2E6A62EC0EF000010C50265C086E26
:100B00000D502758096E0E5028580A6E0F5029585C
:100B10000B6E640E00019803F3CF10F0116A126A95
:100B2000136A10AE03D01168126813681050085C85
:100B3000046E11500958056E12500A58066E135073
:100B40000B58076E97C014F0156A14BE1568E80EAE
:100B50001502F3CF15F0030E1402F3501526E80E1C
:100B60001402F3CF14F0F4501526166A176A15AE66
:100B700002D0166817681450045C006E15500558B2
:100B8000016E16500658026E17500758036E00C0CB
:100B90009AF00A0E9A03F3CF10F0116A126A136AE0
:100BA00010AE03D0116812681368A5C026F0A6C065
:100BB00027F0A7C028F0A8C029F02B6E2C6A2D6A58
:100BC0002E6A62EC0EF000011050265C0C6E115083
:100BD00027580D6E125028580E6E135029580F6E5C
:100BE000640E00019903F3CF14F0156A166A176AB0
:100BF00014AE03D015681668176814500C5C086EA4
:100C000015500D58096E16500E580A6E17500F5891
:100C10000B6E98C018F0196A18BE1968E80E190210
:100C2000F3CF19F0030E1802F3501926E80E18023C
:100C3000F3CF18F0F45019261A6A1B6A19AE02D0C5
:100C40001A681B681850085C046E19500958056E24
:100C50001A500A58066E1B500B58076E97C01CF0AE
:100C60001D6A1CBE1D68100E1D02F3CF1DF0270E5D
:100C70001C02F3501D26100E1C02F3CF1CF0F45082
:100C80001D261E6A1F6A1DAE02D01E681F681C50FA
:100C9000045C006E1D500558016E1E500658026E11
:100CA0001F500758036E00C09BF0A5C026F0A6C0D9
:100CB00027F0A7C028F0A8C029F00A0E2B6E2C6AD6
:100CC0002D6A2E6A62EC0EF022C09CF018D1A5C0ED
:100CD00026F0A6C027F0A7C028F0A8C029F0020E71
:100CE0002B6E2C6A2D6A2E6A5BEC0FF022500001ED
:100CF000A55DA56F2350A659A66F2450A759A76FCD
:100D00002550A859A86F150E976FA5C026F0A6C04C
:100D100027F0A7C028F0A8C029F0100E2B6E270ED0
:100D20002C6E2D6A2E6A62EC0EF026C098F00A0E28
:100D300000019803F3CF04F0056A066A076A04AE5F
:100D400003D0056806680768A5C026F0A6C027F08E
:100D5000A7C028F0A8C029F0E80E2B6E030E2C6E59
:100D60002D6A2E6A62EC0EF000010450265C006EC3
:100D700005502758016E06502858026E0750295812
:100D8000036E00C099F00A0E00019903F3CF08F03A
:100D9000096A0A6A0B6A08AE03D009680A680B6818
:100DA000A5C026F0A6C027F0A7C028F0A8C029F04B
:100DB000640E2B6E2C6A2D6A2E6A62EC0EF0000116
:100DC0000850265C046E09502758056E0A502858B2
:100DD000066E0B502958076E640E00019803F3CF7E
:100DE0000CF00D6A0E6A0F6A0CAE03D00D680E6827
:100DF0000F680C50045C006E0D500558016E0E50CB
:100E00000658026E0F500758036E00C09AF00A0E83
:100E10009A03F3CF0CF00D6A0E6A0F6A0CAE03D082
:100E20000D680E680F68A5C026F0A6C027F0A7C001
:100E300028F0A8C029F02B6E2C6A2D6A2E6A62EC6D
:100E40000EF000010C50265C086E0D502758096EFC
:100E50000E5028580A6E0F5029580B6E640E000170
:100E60009903F3CF10F0116A126A136A10AE03D01F
:100E70001168126813681050085C046E115009580C
:100E8000056E12500A58066E13500B58076E98C024
:100E900014F0156A14BE1568E80E1502F3CF15F0AC
:100EA000030E1402F3501526E80E1402F3CF14F0CB
:100EB000F4501526166A176A15AE02D01668176820
:100EC0001450045C006E15500558016E16500658FB
:100ED000026E17500758036E00C09BF0A5C026F0A5
:100EE000A6C027F0A7C028F0A8C029F00A0E2B6ED4
:100EF0002C6A2D6A2E6A62EC0EF022C09CF002D0A1
:100F0000CEEC00F0010E0001C36FC46B12000001B3
:100F1000A451040A01E1FDD2070A01E1F7D1010A57
:100F200001E1FCD0030A02E060EF0CF09CC0B7F0D6
:100F3000B86BB7BFB8699BC0B9F0BA6BB9BFBA6933
:100F40009AC0BBF0BC6BBBBFBC6999C0BDF0BE6BA7
:100F5000BDBFBE6998C0BFF0C06BBFBFC06997C0BE
:100F6000C1F0C26BC1BFC2690A0E286E296AB9C03E
:100F70002DF0BAC02EF096EC0EF00001B7512624E9
:100F80000A6EB85127200B6E640E286E296ABBC00A
:100F90002DF0BCC02EF096EC0EF00A502624086E00
:100FA0000B502720096EE80E286E030E296EBDC077
:100FB0002DF0BEC02EF096EC0EF008502624066EE2
:100FC00009502720076E100E286E270E296EBFC00D
:100FD0002DF0C0C02EF096EC0EF006502624036EC5
:100FE00007502720046E056A04BE0568C1C00CF0D6
:100FF000C2C00DF00E6A0DBE0E68A00E2C6E860EDD
:101000002D6E010E2E6E0CC027F00DC028F00EC004
:1010100029F0C3EC0EF024C00CF025C00DF026C062
:101020000EF003500C24006E04500D20016E05508C
:101030000E20026E0A0E286E296AADC02DF0AEC0D9
:101040002EF096EC0EF00001AB512624196EAC5137
:1010500027201A6E640E286E296AAFC02DF0B0C02A
:101060002EF096EC0EF019502624176E1A502720F9
:10107000186EE80E286E030E296EB1C02DF0B2C0B6
:101080002EF096EC0EF017502624156E18502720DF
:10109000166E100E286E270E296EB3C02DF0B4C048
:1010A0002EF096EC0EF015502624126E16502720C6
:1010B000136E146A13BE1468B5C01BF0B6C01CF0E2
:1010C0001D6A1CBE1D68A00E2C6E860E2D6E010EB4
:1010D0002E6E1BC027F01CC028F01DC029F0C3ECE9
:1010E0000EF024C01BF025C01CF026C01DF01250CD
:1010F0001B240F6E13501C20106E14501D20116EF7
:1011000000500F240001A56F01501020A66F02505F
:101110001120A76FA86BA7BFA869D2D39CC0B7F056
:10112000B86BB7BFB8699BC0B9F0BA6BB9BFBA6941
:101130009AC0BBF0BC6BBBBFBC6999C0BDF0BE6BB5
:10114000BDBFBE6998C0BFF0C06BBFBFC06997C0CC
:10115000C1F0C26BC1BFC2690A0E286E296AADC058
:101160002DF0AEC02EF096EC0EF00001AB5126240F
:101170000A6EAC5127200B6E640E286E296AAFC030
:101180002DF0B0C02EF096EC0EF00A502624086E1A
:101190000B502720096EE80E286E030E296EB1C091
:1011A0002DF0B2C02EF096EC0EF008502624066EFC
:1011B00009502720076E100E286E270E296EB3C027
:1011C0002DF0B4C02EF096EC0EF006502624036EDF
:1011D00007502720046E056A04BE0568B5C00CF0F0
:1011E000B6C00DF00E6A0DBE0E68A00E2C6E860EF7
:1011F0002D6E010E2E6E0CC027F00DC028F00EC013
:1012000029F0C3EC0EF024C00CF025C00DF026C070
:101210000EF003500C24006E04500D20016E05509A
:101220000E20026E0A0E286E296AB9C02DF0BAC0CF
:101230002EF096EC0EF00001B7512624196EB8512D
:1012400027201A6E640E286E296ABBC02DF0BCC020
:101250002EF096EC0EF019502624176E1A50272007
:10126000186EE80E286E030E296EBDC02DF0BEC0AC
:101270002EF096EC0EF017502624156E18502720ED
:10128000166E100E286E270E296EBFC02DF0C0C03E
:101290002EF096EC0EF015502624126E16502720D4
:1012A000136E146A13BE1468C1C01BF0C2C01CF0D8
:1012B0001D6A1CBE1D68A00E2C6E860E2D6E010EC2
:1012C0002E6E1BC027F01CC028F01DC029F0C3ECF7
:1012D0000EF024C01BF025C01CF026C01DF01250DB
:1012E0001B240F6E13501C20106E14501D20116E05
:1012F0000F50005C0001A56F10500158A66F1150EF
:101300000258A76FA86BA7BFA869DAD29CC0B7F034
:10131000B86BB7BFB8699BC0B9F0BA6BB9BFBA694F
:101320009AC0BBF0BC6BBBBFBC6999C0BDF0BE6BC3
:10133000BDBFBE6998C0BFF0C06BBFBFC06997C0DA
:10134000C1F0C26BC1BFC2690A0E286E296AADC066
:101350002DF0AEC02EF096EC0EF00001AB5126241D
:10136000196EAC5127201A6E640E286E296AAFC020
:101370002DF0B0C02EF096EC0EF019502624176E0A
:101380001A502720186EE80E286E030E296EB1C081
:101390002DF0B2C02EF096EC0EF017502624156EEC
:1013A00018502720166E100E286E270E296EB3C017
:1013B0002DF0B4C02EF096EC0EF015502624126ECF
:1013C00016502720136E146A13BE1468B5C01BF0A4
:1013D000B6C01CF01D6A1CBE1D68A00E2C6E860EC9
:1013E0002D6E010E2E6E1BC027F01CC028F01DC0F4
:1013F00029F0C3EC0EF024C01BF025C01CF026C061
:101400001DF012501B240F6E13501C20106E145030
:101410001D20116E0A0E286E296AB9C02DF0BAC0BF
:101420002EF096EC0EF00001B75126240A6EB8514A
:1014300027200B6E640E286E296ABBC02DF0BCC03D
:101440002EF096EC0EF00A502624086E0B50272042
:10145000096EE80E286E030E296EBDC02DF0BEC0C9
:101460002EF096EC0EF008502624066E0950272028
:10147000076E100E286E270E296EBFC02DF0C0C05B
:101480002EF096EC0EF006502624036E075027200F
:10149000046E056A04BE0568C1C00CF0C2C00DF040
:1014A0000E6A0DBE0E68A00E2C6E860E2D6E010EFD
:1014B0002E6E0CC027F00DC028F00EC029F0C3EC32
:1014C0000EF024C00CF025C00DF026C00EF0035025
:1014D0000C24006E04500D20016E05500E20026E8B
:1014E00000C027F001C028F002C029F00FC02CF086
:1014F00010C02DF011C02EF0C3EC0EF024C0A5F0EA
:1015000025C0A6F026C0A7F00001A86BA7BFA86958
:10151000D7D19CC0B7F0B86BB7BFB8699BC0B9F062
:10152000BA6BB9BFBA699AC0BBF0BC6BBBBFBC6930
:1015300099C0BDF0BE6BBDBFBE6998C0BFF0C06BA7
:10154000BFBFC06997C0C1F0C26BC1BFC2690A0EFC
:10155000286E296AADC02DF0AEC02EF096EC0EF0CC
:101560000001AB512624076EAC512720086E640E93
:10157000286E296AAFC02DF0B0C02EF096EC0EF0A8
:1015800007502624056E08502720066EE80E286EA8
:10159000030E296EB1C02DF0B2C02EF096EC0EF005
:1015A00005502624036E06502720046E100E286E68
:1015B000270E296EB3C02DF0B4C02EF096EC0EF0BD
:1015C00003502624006E04502720016E026A01BEDB
:1015D0000268B5C009F0B6C00AF00B6A0ABE0B6813
:1015E000A00E2C6E860E2D6E010E2E6E09C027F0F9
:1015F0000AC028F00BC029F0C3EC0EF024C009F09B
:1016000025C00AF026C00BF0005009240001C56F68
:1016100001500A20C66F02500B20C76FC86BC7BFAE
:10162000C8690A0E286E296AB9C02DF0BAC02EF01A
:1016300096EC0EF00001B7512624076EB851272012
:10164000086E640E286E296ABBC02DF0BCC02EF057
:1016500096EC0EF007502624056E08502720066EE3
:10166000E80E286E030E296EBDC02DF0BEC02EF010
:1016700096EC0EF005502624036E06502720046ECB
:10168000100E286E270E296EBFC02DF0C0C02EF0A0
:1016900096EC0EF003502624006E04502720016EB5
:1016A000026A01BE0268C1C009F0C2C00AF00B6A3A
:1016B0000ABE0B68A00E2C6E860E2D6E010E2E6ECD
:1016C00009C027F00AC028F00BC029F0C3EC0EF0C7
:1016D00024C009F025C00AF026C00BF000500924F0
:1016E0000001C96F01500A20CA6F02500B20CB6F56
:1016F000CC6BCBBFCC690A0E286E296AB9C02DF01D
:10170000BAC02EF096EC0EF00001B7512624196EE7
:10171000B85127201A6E640E286E296ABBC02DF0BE
:10172000BCC02EF096EC0EF019502624176E1A50FD
:101730002720186EE80E286E030E296EBDC02DF00E
:10174000BEC02EF096EC0EF017502624156E1850E1
:101750002720166E100E286E270E296EBFC02DF0A2
:10176000C0C02EF096EC0EF015502624126E1650C6
:101770002720136E146A13BE1468C1C01BF0C2C0C8
:101780001CF01D6A1CBE1D68A00E2C6E860E2D6EF0
:10179000010E2E6E1BC027F01CC028F01DC029F0C2
:1017A000C3EC0EF024C01BF025C01CF026C01DF0B9
:1017B00012501B240F6E13501C20106E14501D204D
:1017C000116E0A0E286E296AADC02DF0AEC02EF043
:1017D00096EC0EF00001AB5126240A6EAC51272086
:1017E0000B6E640E286E296AAFC02DF0B0C02EF0CB
:1017F00096EC0EF00A502624086E0B502720096E36
:10180000E80E286E030E296EB1C02DF0B2C02EF086
:1018100096EC0EF008502624066E09502720076E1D
:10182000100E286E270E296EB3C02DF0B4C02EF016
:1018300096EC0EF006502624036E07502720046E07
:10184000056A04BE0568B5C00CF0B6C00DF00E6A9E
:101850000DBE0E68A00E2C6E860E2D6E010E2E6E25
:101860000CC027F00DC028F00EC029F0C3EC0EF01C
:1018700024C00CF025C00DF026C00EF003500C243F
:10188000006E04500D20016E05500E20026E00C047
:1018900027F001C028F002C029F00FC02CF010C0C2
:1018A0002DF011C02EF035EC0EF027C0A5F028C0A9
:1018B000A6F029C0A7F00001A86BA7BFA86900D0B7
:1018C000D7EF00F0D9CFE6FFE1CFD9FF020EE12636
:1018D0000001C36BC46BA46B976B986B996B9A6B8D
:1018E0009B6B9C6BA36BC56BC66BC76BC86BC96BE3
:1018F000CA6BCB6BCC6BCD6BCE6BCF6BD06BDE6A18
:10190000DD6AD9CFE9FFDACFEAFF050ED880EE54C1
:10191000000EED5425E3DECFE9FFDDCFEAFF010E37
:10192000D890E936EA36E806FBE1AB0EE926000E70
:10193000EA22EE6AED6ADECFE9FFDDCFEAFF010EB3
:10194000D890E936EA36E806FBE1B70EE926000E44
:10195000EA22EE6AED6ADF2A010E01E3DB2AD1D723
:10196000020EE15C02E2E16AE552E16EE552E7CF88
:10197000D9FF12008C808C828C848C868C888C8A17
:1019800097C0E9FFEA6AE9BEEA68800EE926000E20
:10199000EA22EF508B6E8C900AEC00F08C8098C09D
:1019A000E9FFEA6AE9BEEA68800EE926000EEA224B
:1019B000EF508B6E8C920AEC00F08C8299C0E9FF9C
:1019C000EA6AE9BEEA68800EE926000EEA22EF50D4
:1019D0008B6E8C940AEC00F08C849AC0E9FFEA6A62
:1019E000E9BEEA68800EE926000EEA22EF508B6E0F
:1019F0008C960AEC00F08C869BC0E9FFEA6AE9BE8F
:101A0000EA68800EE926000EEA22EF508B6E8C9871
:101A10000AEC00F08C889CC0E9FFEA6AE9BEEA683B
:101A2000800EE926000EEA22EF508B6E8C9A0AECAB
:101A300000F08C8A12000001A351050A21E0010A7E
:101A400016E0070A0DE0010A06E0030A01E023D0D0
:101A50009CC09BF020D09BC09AF09CC09BF01BD0F8
:101A60009AC099F09BC09AF09CC09BF014D099C08A
:101A700098F09AC099F09BC09AF09CC09BF00BD054
:101A800098C097F09AC098F09AC099F09BC09AF0CD
:101A90009CC09BF000D0A32B12008A908A828A847B
:101AA0008A8E81B605D081A6FED7C5DF070E1BD072
:101AB00081B805D081A8FED7BEDF040E14D081BA4C
:101AC00005D081AAFED7B7DF010E0DD081BC05D0AD
:101AD00081ACFED7F7DE000E06D08A808A828A8427
:101AE0008A8EFF0E00D012008A808A928A848A8EA3
:101AF00081B605D081A6FED79EDF080E1BD081B827
:101B000005D081A8FED797DF050E14D081BA05D085
:101B100081AAFED790DF020E0DD081BC05D081AC2A
:101B2000FED789DF000E06D08A808A828A848A8E58
:101B3000FF0E00D012008A808A828A948A8E81B633
:101B400005D081A6FED777DF090E1BD081B805D05E
:101B500081A8FED770DF060E14D081BA05D081AA05
:101B6000FED769DF030E0DD081BC05D081ACFED756
:101B700087EC07F006D08A808A828A848A8EFF0EDC
:101B800000D012008A808A828A848A9E81B606D01A
:101B900081A6FED7A5EC00F0000E1ED081B806D0BD
:101BA00081A8FED77CEC00F0000E16D081BA06D0DA
:101BB00081AAFED753EC00F0000E0ED081BC06D0F7
:101BC00081ACFED72AEC00F0000E06D08A808A8213
:101BD0008A848A8EFF0E00D01200D9CFE6FFE1CFB3
:101BE000D9FF040EE12659DFDF6E7EDFE76E010EBE
:101BF000E7CFDBFFA0DFE76E020EE7CFDBFFC2DF40
:101C00000001C351C4111BE10A0EDF5C02E2DFCF09
:101C10009CF00A0EF36E010EDBCFF4FFF350F45C80
:101C200003E2010EDBCF9CF00A0EF36E020EDBCF57
:101C3000F4FFF350F45C03E2020EDBCF9CF0040EE1
:101C4000E15C02E2E16AE552E16EE552E7CFD9FFDD
:101C50001200D3680F0EC16E946AC00E956E780E96
:0A1C6000936E88DEBADFFDD7120094
:061C6A00206A2EAE40EFDF
:101C70000EF02C6C2D1E2E1EE86A2D222E22201E08
:101C800029AE4AEF0EF0276C281E291EE86A28228A
:101C90002922201EB7EC0FF029BE5DEF0EF020AE1A
:101CA000000C276C281E291EE86A28222922236C92
:101CB000241E251E24222522000C20BE51EF0EF0EA
:101CC0002188FF0C206AE86A2EAE6FEF0EF02B6CB5
:101CD0002C1E2D1E2E1E2C222D222E22201E29AE21
:101CE0007AEF0EF0266C271E281E291E2722282296
:101CF0002922201E93EC0FF029BE91EF0EF020AEAA
:101D0000000C266C271E281E291EE86A272228227E
:101D10002922226C231E241E251E23222422252252
:101D2000000C20BE81EF0EF02188FF0C29C033F09B
:101D300028C032F028502D02F4CF27F0F3CF26F040
:101D400029502E02F4CF29F0F3CF28F02D02F350C2
:101D50002726F4502822E86A292232502E02F35016
:101D60002726F4502822E86A29222EAEBCEF0EF076
:101D70003250285E3350295A33AE000C2D50285E65
:101D80002E50295A000C29C033F028C032F027C049
:101D900031F027502C02F4CF25F0F3CF24F0285057
:101DA0002D02F4CF27F0F3CF26F02C02F350252696
:101DB000F4502622E86A272231502D02F3502526BE
:101DC000F4502622E86A272229502C02F3502626B6
:101DD000F450272229502D02286AE86A2822F3505D
:101DE0002726F450282231502E02F3502626F45094
:101DF0002722296AE86A2822292232502E02F3502B
:101E00002726F4502822E86A292233502E02F35064
:081E10002826F4502922000CE1
:081E1800060EF66E000EF76ED7
:101E2000000EF86E00010900F550D66F0900F5505C
:101E3000D76F03E1D66701D03DD00900F550D16FCF
:101E40000900F550D26F0900F550D36F0900090061
:101E5000F550E96E0900F550EA6E09000900090025
:101E6000F550D46F0900F550D56F09000900F6CF81
:101E7000D8F0F7CFD9F0F8CFDAF0D1C0F6FFD2C062
:101E8000F7FFD3C0F8FF0001D45302E1D55307E0B8
:101E90000900F550EE6ED407F8E2D507F9D7D8C09F
:101EA000F6FFD9C0F7FFDAC0F8FF0001D607000E31
:061EB000D75BBFD7120052
:0A1EB60026502B02F3CF22F0F4CFE8
:101EC00023F02C02F3502326000EF420246E26501B
:101ED0002D02F3502426000EF420256E26502E02EB
:101EE000F350252627502B02F3502326F4502422AA
:101EF000000E252227502C02F3502426F4502522D0
:101F000027502D02F350252628502B02F35024266B
:101F1000F450252228502C02F350252629502B025C
:061F2000F350252612001B
:0A1F2600256A246A236A226A200E4D
:101F3000E76ED890263627362836293622362336BD
:101F4000243625362B50225C2C5023582D502458F3
:101F50002E50255809E32B50225E2C50235A2D5029
:0E1F6000245A2E50255A262AE72EE4D71200C6
:021F6E00256AE2
:101F7000246A236A180EE76ED89027362836293649
:101F80002336243625362C50235C2D5024582E50D1
:101F9000255807E32C50235E2D50245A2E50255AE5
:081FA000272AE72EEAD7120000
:081FA800000EF36E00EE00F0E4
:101FB000060E01D81200EA6002D0EE6AFCD7F35098
:081FC000E9601200EE6AFCD793
:081FC80015EE00F025EE00F01B
:101FD000F86A219C0CEC0FF0F2EC0FF029EC0EF0FB
:041FE000FBD7120019
:021FE4001200E9
:0A1FE6003F065B4F666D7D077F6FBD
:101FF000BF86DBCFE6EDFD87FFEF084079000000EC
:102000000000000000000000000000000000000AC6
:1020100000000000000000000000000000000000C0
:1020200000000000000000000000000000000000B0
:0720300000000000000000A9
:020000040030CA
:0100010008F6
:00000001FF
