:020000040000FA
:0600000000EF03F0120006
:0A00060001001E060000800000004B
:0400100023000000C9
:0C001400D9CFE6FFE1CFD9FF020EE126B4
:10002000DE6ADD6ADECF02F0DDCF03F01E0E025C79
:10003000050E035805E2DF2A010E01E3DB2AF2D7A1
:10004000020EE15C02E2E16AE552E16EE552E7CFC1
:10005000D9FF12008C808C828C848C868C888C8A50
:1000600094C0E9FFEA6AE9BEEA68800EE926000E5C
:10007000EA22EF508B6E8C90CDDF8C8095C0E9FF2B
:10008000EA6AE9BEEA68800EE926000EEA22EF502D
:100090008B6E8C92BFDF8C8296C0E9FFEA6AE9BE64
:1000A000EA68800EE926000EEA22EF508B6E8C94EF
:1000B000B1DF8C8497C0E9FFEA6AE9BEEA68800E86
:1000C000E926000EEA22EF508B6E8C96A3DF8C8619
:1000D00098C0E9FFEA6AE9BEEA68800EE926000EE8
:1000E000EA22EF508B6E8C9895DF8C8899C0E9FFDF
:1000F000EA6AE9BEEA68800EE926000EEA22EF50BD
:100100008B6E8C9A87DF8C8A12008A908A828A840E
:1001100081B604D081A6FED7010E19D081B804D0D3
:1001200081A8FED7040E13D081BA04D081AAFED7CD
:10013000070E0DD081BC06D081ACFED70001A12BEB
:10014000000E05D08A808A828A84FF0E00D01200B9
:100150008A808A928A8481B604D081A6FED7020E54
:1001600017D081B804D081A8FED7050E11D081BA6E
:1001700004D081AAFED7080E0BD081BC04D081AC7C
:10018000FED7000E05D08A808A828A84FF0E00D0B6
:1001900012008A808A828A9481B604D081A6FED712
:1001A000030E11D081B804D081A8FED7050E0BD064
:1001B00081BA04D081AAFED7090E05D08A808A822E
:1001C0008A84FF0E00D012008A808A828A9481BCC1
:1001D00005D081ACFED70001A22B05D08A808A828F
:1001E0008A84FF0E00D0120000019A2B0A0EE76EDF
:1001F0009A19E8AE02D09A3503D0E750D8809A55C4
:1002000002E29A6B992B090EE76E9919E8AE02D0BB
:10021000993503D0E750D880995502E2996B982B15
:10022000050EE76E9819E8AE02D0983503D0E75076
:10023000D880985502E2986B972B090EE76E9719B4
:10024000E8AE02D0973503D0E750D880975502E248
:10025000976B962B050EE76E9619E8AE02D0963591
:1002600003D0E750D880965502E2966B952B090E85
:10027000E76E9519E8AE02D0953503D0E750D880E7
:10028000955501E2952B020EE76E9419E8AE02D067
:10029000E73402D0E750945D06E3946B956B966B60
:1002A000976B986B996B010EE76E9419E8AE02D0CC
:1002B000E73402D0E750945D10E3020EE76E951923
:1002C000E8AE02D0E73402D0E750955D06E3946BC8
:1002D000956B966B976B986B996B1200D9CFE6FF75
:1002E000E1CFD9FF030EE12610DFDF6E31DFE76ECD
:1002F000010EE7CFDBFF4DDFE76E020EE7CFDBFF3E
:100300000001A151040A01E1ADD0070A01E17ED04C
:10031000010A50E0030A22E0010A01E0B2D00A0E0D
:10032000DF5C03E20A0EDF24946F0A0EF36E010E07
:10033000DBCFF4FFF350F45C04E2010EDB500A0F54
:10034000946F0A0EF36E020EDBCFF4FFF350F45CF1
:1003500004E2020EDB500A0F946F93D00A0EE76E90
:100360009419E8AE02D0E73402D0E750945D03E37D
:100370000A0E945F95270A0EDF5C03E20A0EDF2463
:10038000956F0A0EF36E010EDBCFF4FFF350F45CB1
:1003900004E2010EDB500A0F956F0A0EF36E020E97
:1003A000DBCFF4FFF350F45C04E2020EDB500A0FE3
:1003B000956F67D00A0EE76E9519E8AE02D0E73464
:1003C00002D0E750955D03E30A0E955F96270A0E6B
:1003D000DF5C03E20A0EDF24966F0A0EF36E010E55
:1003E000DBCFF4FFF350F45C04E2010EDB500A0FA4
:1003F000966F0A0EF36E020EDBCFF4FFF350F45C3F
:1004000004E2020EDB500A0F966F3BD00A0EE76E35
:100410009619E8AE02D0E73402D0E750965D03E3C8
:100420000A0E965F97270A0EDF5C03E20A0EDF24AE
:10043000976F0A0EF36E010EDBCFF4FFF350F45CFE
:1004400004E2010EDB500A0F976F0A0EF36E020EE4
:10045000DBCFF4FFF350F45C04E2020EDB500A0F32
:10046000976F0FD00A0EE76E9719E8AE02D0E73407
:1004700002D0E750975D03E30A0E975F9427A16BC4
:1004800000D0030EE15C02E2E16AE552E16EE55262
:10049000E7CFD9FF12000001A25102E195DE1EDF75
:1004A0000001A20541E10A0EE76E9419E8AE02D000
:1004B000E73402D0E750945D02E30A0E945F0A0E1F
:1004C000E76E9519E8AE02D0E73402D0E750955DAB
:1004D00002E30A0E955F0A0EE76E9619E8AE02D0A7
:1004E000E73402D0E750965D02E30A0E965F0A0EEB
:1004F000E76E9719E8AE02D0E73402D0E750975D77
:1005000002E30A0E975F60DE6FDE020E0001E76E07
:10051000A219E8AE02D0E73402D0E750A25D04E3AE
:10052000A26BA16B0A0E94271200D3680F0EC16E46
:10053000946AC00E956EF80E936E8CDDACDFFDD71D
:020540001200A7
:0E054200060EF66E000EF76E000EF86E00014B
:100550000900F550A86F0900F550A96F03E1A867DD
:1005600001D03DD00900F550A36F0900F550A46FEC
:100570000900F550A56F09000900F550E96E090062
:10058000F550EA6E090009000900F550A66F090050
:10059000F550A76F09000900F6CFAAF0F7CFABF02E
:1005A000F8CFACF0A3C0F6FFA4C0F7FFA5C0F8FFDA
:1005B0000001A65302E1A75307E00900F550EE6ED3
:1005C000A607F8E2A707F9D7AAC0F6FFABC0F7FF66
:1005D000ACC0F8FF0001A807000EA95BBFD712004E
:1005E000000EF36E00EE00F0060E01D81200EA6075
:1005F00002D0EE6AFCD7F350E9601200EE6AFCD735
:1006000015EE00F025EE00F0F86A019CA1EC02F076
:0C0610000EEC03F095EC02F0FBD712009A
:02061C001200CA
:02061E003F0695
:100620005B4F666D7D077F6FBF86DBCFE6EDFD8795
:10063000FFEF0A00000000000000000000000000C2
:0106400000B9
:020000040030CA
:0100010008F6
:00000001FF
